:100000000C945D050C9485050C9485050C94F619EB
:100010000C94F6190C94F6190C9485050C9485052E
:100020000C9485050C9485050C9485050C94850528
:100030000C9485050C9485050C9485050C94850518
:100040000C9454190C9485050C94C4190C949E19A5
:100050000C9485050C9485050C9485050C948505F8
:100060000C946E1A0C94850500000000003E5B4F56
:100070005B3E3E6B4F6B3E1C3E7C3E1C183C7E3C08
:10008000181C577D571C1C5E7F5E1C00183C180016
:10009000FFE7C3E7FF0018241800FFE7DBE7FF30A6
:1000A000483A060E2629792926407F050507407F14
:1000B00005253F5A3CE73C5A7F3E1C1C08081C1C87
:1000C0003E7F14227F22145F5F005F5F06097F017D
:1000D0007F006689956A606060606094A2FFA29468
:1000E00008047E040810207E201008082A1C080836
:1000F0001C2A08081E101010100C1E0C1E0C303884
:100100003E3830060E3E0E06000000000000005F84
:1001100000000007000700147F147F14242A7F2AA0
:100120001223130864623649562050000807030062
:10013000001C2241000041221C002A1C7F1C2A08AE
:10014000083E080800807030000808080808000011
:1001500060600020100804023E5149453E00427F85
:10016000400072494949462141494D331814127FD4
:100170001027454545393C4A494931412111090774
:100180003649494936464949291E000014000000F5
:1001900040340000000814224114141414140041C7
:1001A00022140802015909063E415D594E7C121184
:1001B000127C7F494949363E414141227F414141BC
:1001C0003E7F494949417F090909013E4141517337
:1001D0007F0808087F00417F41002040413F017FA8
:1001E000081422417F404040407F021C027F7F0470
:1001F00008107F3E4141413E7F090909063E4151B9
:10020000215E7F09192946264949493203017F01A8
:10021000033F4040403F1F2040201F3F4038403FA9
:10022000631408146303047804036159494D4300BF
:100230007F4141410204081020004141417F0402F6
:10024000010204404040404000030708002054548D
:1002500078407F284444383844444428384444286B
:100260007F385454541800087E090218A4A49C78BE
:100270007F0804047800447D40002040403D007F1A
:100280001028440000417F40007C047804787C08FA
:100290000404783844444438FC18242418182424CE
:1002A00018FC7C08040408485454542404043F44B3
:1002B000243C4040207C1C2040201C3C4030403CE2
:1002C00044281028444C9090907C4464544C440042
:1002D00008364100000077000000413608000201A6
:1002E0000204023C2623263C1EA1A161123A404092
:1002F000207A38545455592155557941225454780F
:1003000042215554784020545579400C1E527212A7
:100310003955555559395454545939555454580030
:1003200000457C410002457D420001457C407D1234
:1003300011127DF0282528F07C5455450020545496
:100340007C547C0A097F4932494949323A44444441
:100350003A324A4848303A4141217A3A424020787C
:10036000009DA0A07D3D4242423D3D4040403D3C7D
:1003700024FF2424487E4943662B2FFC2F2BFF09A2
:1003800029F620C0887E0903205454794100004496
:100390007D413048484A32384040227A007A0A0A81
:1003A000727D0D19317D2629292F282629292926F4
:1003B00030484D4020380808080808080808382F39
:1003C00010C8ACBA2F102834FA00007B00000814C3
:1003D0002A142222142A14085500550055AA55AA99
:1003E00055AAFF55FF55FF000000FF00101010FF39
:1003F00000141414FF001010FF00FF1010F010F094
:10040000141414FC001414F700FF0000FF00FF1484
:1004100014F404FC141417101F10101F101F1414D0
:10042000141F00101010F0000000001F101010101A
:100430001F10101010F010000000FF10101010100E
:1004400010101010FF10000000FF140000FF00FF4C
:1004500000001F10170000FC04F4141417101714E8
:1004600014F404F40000FF00F7141414141414140A
:10047000F700F7141414171410101F101F1414147D
:10048000F4141010F010F000001F101F0000001FE7
:1004900014000000FC140000F010F01010FF10FF1A
:1004A000141414FF141010101F00000000F010FFAF
:1004B000FFFFFFFFF0F0F0F0F0FFFFFF0000000093
:1004C00000FFFF0F0F0F0F0F3844443844FC4A4A17
:1004D0004A347E02020606027E027E0263554941CC
:1004E000633844443C04407E201E2006027E020203
:1004F00099A5E7A5991C2A492A1C4C7201724C3017
:100500004A4D4D303048784830BC625A463D3E49ED
:100510004949007E0101017E2A2A2A2A2A44445F91
:10052000444440514A444040444A51400000FF0185
:1005300003E080FF000008086B6B08361236243693
:10054000060F090F060000181800000010100030F8
:1005500040FF0101001F01011E00191D1712003C80
:100560003C3C3C0000000000000103070F1F3F7FE0
:100570000080C0E0F0F8FCFEDB40A4A62EAF200017
:10058000A1C8D300408DAED580A800006000000057
:100590000000000000000000000000E0000000007B
:1005A00000000000000000000001E000000000006A
:1005B000000000000000000001F00000000000004A
:1005C0000000000000000003F00000000000000038
:1005D00000000000000007F0000000000000000024
:1005E000000000000007F80000000000000000000C
:1005F000000000000FF800000003C0007E000001B2
:10060000E0007F0FF800000003C000FE000001E0E2
:1006100000FFEFF800000003C000FE000001E00052
:10062000FFFFF800000003C000F00000000F007F93
:10063000FE7FC0000003C000F00000000F003FFE7E
:100640007FF83FF1FBCFFCFEF3BC3DEFE01FFE7FE8
:10065000FF7FFBFFDFFEFEFFBC3DEFE01FC6FFFF9D
:100660007FFBFFDFFEFEFFBC3DEFE00FE3C7FE7840
:100670007BC3DE1EF0FFBC3DEF0007FF87FC787BED
:10068000C3DE1EF0F83C3DEF0001FFFFF0007BC32E
:10069000C01EF0F03C3DEF0001F37FE03FFBC3CF15
:1006A000FEF0F03C3DEF0003E33F807FFBC3DFFE45
:1006B000F0F03C3DEF0007E73C00787BC3DE1EF026
:1006C000F03C3DEF0007FFBE00787BC3DE1EF0F07C
:1006D0003C3DEF0007FFFE00787BC3DE1EF0F03CE0
:1006E0003DEF000FFFFE007FFBFFDFFEF0F03FFD60
:1006F000EFE00FFFFF007FFBFFDFFEF0F03FFDEFBD
:10070000E00FF9FF003E79F9CF9EF0F01F3DE7E0E2
:100710001FF1FF0000000000000000000000001FAB
:1007200080FF007FFFFFFFFFFFFFFFFFFFE01C00D8
:100730007F007FFFFFFFFEB46D888D18E000001F73
:10074000007FFFFFFFFE95AD7DB577E000000F0055
:100750007FFFFFFFFEA5AD9D8D19E0000006007F25
:10076000FFFFFFFEB5ADEDB57EE00000000000012B
:100770008000000000000000000003800000000076
:10078000000000000007C0000000000000000000A2
:1007900007C00000000000000000000FC0000000C3
:1007A0000000000000001FE000000000000000004A
:1007B000001FE00000000000000000003FE000001B
:1007C000000000000000003FF000000000000000FA
:1007D00000007FF0000000000000001FF87FF00024
:1007E0000000000000003FFE7FF00000000000005D
:1007F000003FFF7FF0000000000000001FFFFBE053
:10080000000000000000000FFFF9FFC00000000022
:1008100000000FFFF9FFF800000000000007FFF1E3
:10082000FFFF00000000000003FC73FFFF800000DA
:1008300000000001FE3FFFFF80000000000000FFFD
:100840001E0FFF000000000000007FFE1FFC0000E4
:1008500000000000003FFFFFF80000000000000063
:100860000FDFFFE0000000000000001F19FFC000C4
:100870000000000000003F3CFF00000000000000FE
:10088000007E7CF800000000000000007FFE7C007D
:1008900000000000000000FFFFFC0000000000005E
:1008A0000000FFFFFE0000000000000000FFFFFE50
:1008B0000000000000000001FFEFFE00000000004B
:1008C000000001FFCFFE0000000000000003FF0752
:1008D000FE0000000000000003FC07FE0000000016
:1008E00000000003F003FE00000000000000018093
:1008F00000FE000000000000000000007E0000007C
:10090000000000000000003E0000000000000000A9
:1009100000000C000000000000078000FC00000345
:10092000C0000000078001FC000003C000000007B9
:100930008001FC000003C0000000078001E000000F
:10094000001E000000078001E00000001E007FE3A1
:10095000F79FF9FDE7787BDFC0FFF7FFBFFDFDFFE5
:10096000787BDFC0FFF7FFBFFDFDFF787BDFC0F0C6
:10097000F787BC3DE1FF787BDE00F0F787BC3DE107
:10098000F0787BDE0000F787803DE1E0787BDE00D9
:100990007FF7879FFDE1E0787BDE00FFF787BFFDF3
:1009A000E1E0787BDE00F0F787BC3DE1E0787BDEBC
:1009B00000F0F787BC3DE1E0787BDE00F0F787BC14
:1009C0003DE1E0787BDE00FFF7FFBFFDE1E07FFB6C
:1009D000DFC0FFF7FFBFFDE1E07FFBDFC07CF3F38B
:1009E0009F3DE1E03E7BCFC0000000000000000022
:1009F000000000FFFFFFFFFFFFFFFFFFFFC0FFFF43
:100A0000FFFFFD68DB111A31C0FFFFFFFFFD2B5A0E
:100A1000FB6AEFC0FFFFFFFFFD4B5B3B1A33C0FFDC
:100A2000FFFFFFFD6B5BDB6AFDC04D5033506C6117
:100A3000796572206F6E6C696E652E00496E6974FF
:100A400069616C697A696E67204D5033506C6179C9
:100A50006572202E2E2E0000000000240027002AA0
:100A60000000000000250028002B000000000023EB
:100A70000026002900040404040404040402020201
:100A800002020203030303030301020408102040CF
:100A90008001020408102001020408102000000058
:100AA000080002010000030407000000000000002D
:100AB000002200FF2100FC1B522711241FBECFEF94
:100AC000D8E0DEBFCDBF11E0A0E0B1E0E4EEF3E599
:100AD00002C005900D92A439B107D9F724E0A4E92A
:100AE000B1E001C01D92AD3BB207E1F715E0CCE5E6
:100AF000D5E004C02197FE010E94AE28CB35D10776
:100B0000C9F70E941B1E0C94E5290C940000CF939A
:100B1000DF93EC016885633301F129853A856150E3
:100B2000B9F070E08FEF92E30E948628F9014C81C2
:100B30005D81CF01821B930B8417950760F4408180
:100B4000469FC001479F900D112490833196EFCFAF
:100B500070E060E0EBCF83E38887DF91CF91089569
:100B60008F929F92AF92BF92CF92DF92EF92FF92BD
:100B7000CF932091EC033091ED0382179307E8F5B2
:100B80004B01AA24BB24C82DC52ED62EE72EFF2448
:100B9000BC2DA42F2091F203222361F0829E4001FC
:100BA0001124C92D2C9D60011124BD2D249FF0011D
:100BB0001124AF2FE091F803E090F303F090F403D9
:100BC0003091F503E31323C09C01220F331F820FE2
:100BD000931F8E0D9F1DE091F503E80FF92FF11D76
:100BE000C083E091F603E80FF92FF11DB083209147
:100BF000F703820F911DFC01A083CF91FF90EF902E
:100C0000DF90CF90BF90AF909F908F900895880F06
:100C1000991F880F991F8E0D9F1D472F55276627F7
:100C20007727222349F030E0249F7001259FF00CA4
:100C3000349FF00C11244F2DE80FF92FF11D408344
:100C4000CACF0895FC01538D448D252F30E0842FA9
:100C500090E0821B930B541710F0CF9608950197E4
:100C60000895FC01918D828D981761F0A28DAE0FD1
:100C7000BF2FB11D5D968C91928D9F5F9F73928F58
:100C800090E008958FEF9FEF0895FC01918D828D84
:100C9000981731F0828DE80FF11D858D90E0089551
:100CA0008FEF9FEF0895FC01918D228D892F90E0A9
:100CB000805C9F4F821B91098F7399270895FC01D7
:100CC000A48DA80FB92FB11DA35ABF4F2C91848DAD
:100CD00090E001968F739927848FA689B7892C930A
:100CE000A089B1898C91837080648C93938D848D5D
:100CF000981306C00288F389E02D80818F7D808360
:100D00000895EF92FF920F931F93CF93DF93EC011F
:100D100081E0888F9B8D8C8D98131AC0E889F989A2
:100D2000808185FF15C09FB7F894EE89FF896083A5
:100D3000E889F98980818370806480839FBF81E026
:100D400090E0DF91CF911F910F91FF90EF90089568
:100D5000F62E0B8D10E00F5F1F4F0F731127E02E43
:100D60008C8D8E110CC00FB607FCFACFE889F9897B
:100D7000808185FFF5CFCE010E945F06F1CFEB8D1C
:100D8000EC0FFD2FF11DE35AFF4FF0829FB7F8944F
:100D90000B8FEA89FB8980818062CFCFCF93DF936D
:100DA000EC01888D8823B9F0AA89BB89E889F98983
:100DB0008C9185FD03C0808186FD0DC00FB607FCB8
:100DC000F7CF8C9185FFF2CF808185FFEDCFCE01EB
:100DD0000E945F06E9CFDF91CF91089580EB92E00A
:100DE0000E94530621E0892B09F420E0822F089508
:100DF00080E090E0892B29F00E94EE0681110C948E
:100E000000000895833081F028F4813099F0823019
:100E1000A9F008958730A9F08830C9F08430B1F482
:100E2000809180008F7D03C0809180008F778093B8
:100E30008000089584B58F7784BD089584B58F7D33
:100E4000FBCF8091B0008F778093B00008958091A0
:100E5000B0008F7DF9CFCF93DF93282F30E0F901D9
:100E6000E356F54F8491F901E757F54FD491F90115
:100E7000EB58F54FC491CC23A1F081110E940207D9
:100E8000EC2FF0E0EE0FFF1FE559F54FA591B4915F
:100E9000EC91ED2381E090E009F480E0DF91CF91C7
:100EA000089580E090E0FACF1F93CF93DF93282F2F
:100EB00030E0F901E356F54F8491F901E757F54F1A
:100EC000D491F901EB58F54FC491CC23A9F0162F1A
:100ED00081110E940207EC2FF0E0EE0FFF1FEF5987
:100EE000F54FA591B4918FB7F894EC91111108C00A
:100EF000D095DE23DC938FBFDF91CF911F910895B2
:100F0000DE2BF8CFCF93DF9390E0FC01E757F54F4E
:100F100024918B58954FFC0184918823D1F090E067
:100F2000880F991FFC01E95AF54FA591B491FC0176
:100F3000EF59F54FC591D49161110EC09FB7F89448
:100F40008C91E22FE0958E238C932881E223E88315
:100F50009FBFDF91CF9108958FB7F894EC91E22B6A
:100F6000EC938FBFF6CF3FB7F8948091A802909191
:100F7000A902A091AA02B091AB0226B5A89B05C018
:100F80002F3F19F00196A11DB11D3FBFBA2FA92F08
:100F9000982F8827BC01CD01620F711D811D911D05
:100FA00042E0660F771F881F991F4A95D1F7089571
:100FB0008F929F92AF92BF92CF92DF92EF92FF9269
:100FC0006B017C010E94B3074B015C01C114D10489
:100FD000E104F104B9F00E94B307681979098A099C
:100FE0009B09683E73408105910580F321E0C21A98
:100FF000D108E108F10888EE880E83E0981EA11C54
:10100000B11CE4CFFF90EF90DF90CF90BF90AF90F6
:101010009F908F9008958091930490919404DC01A7
:10102000ED91FC910084F185E02D0995892B09F45F
:10103000A6C060E070E0CB010E94D8072091B10407
:101040008091930490919404DC01ED91FC910284D1
:10105000F385E02D21110BC0099580939D048E37F7
:10106000D1F68091B1048F5F8093B104D4CF0995FC
:101070009091B104E92FF0E0E357FB4F808B923061
:10108000A9F09930C9F0913099F48F3F89F010920E
:10109000B10481E08093B3041092B6041092B504B9
:1010A0008093B7041092B80480E00895863079F7F1
:1010B0009F5F9093B104AFCF8F3E49F720919F047B
:1010C00080919E04280F3327331FE091A004C901AB
:1010D0008E0F911D2091A104280F392F311D4091B1
:1010E000A20450E0240F351F8091A30490E060918A
:1010F000A40470E0762F6627F091A5046F0F711D90
:10110000280F391F3195219531096217730709F0AE
:10111000BECF1092B104E13419F41092B8042FC07C
:10112000E093B404542F4427840F951F9093B60482
:101130008093B504EA53E63108F046C0F0E0ED557F
:10114000F74F0C94AE28D008D808B908B908E208BF
:10115000C208E008E408E208E208E208E208E2085F
:10116000E208E208E208E408E208E208E208E2082D
:10117000E20885E08093B30481E08093B704809116
:10118000B704089580FF02C089E0F4CF81FF02C058
:1011900084E0F0CF83709927892B89F38AE0EACF26
:1011A00080FF02C087E0E6CF81FFE9CF82E0E2CF97
:1011B00080FF02C088E0DECF81FFE1CF83E0DACF9D
:1011C00086E0D8CF8BE0D6CF81E08093B304109235
:1011D000B6041092B5048093B7049FCF2FB7F8944C
:1011E0006091A4027091A5028091A6029091A7023D
:1011F0002FBF08958F929F92AF92BF92CF92DF92AE
:10120000EF92FF92CF938093AA04272F30E0709340
:10121000AC046093AD044091A9049091A804490FD7
:101220005527551F840F952F911D4091AB04840FB6
:10123000911D820F931F680F792F711D7195619514
:1012400071097093AE046093AF044423C1F1C1E00F
:101250008091B804882399F160E070E0CB010E948E
:10126000D8070E94EE086B017C0180909904909051
:101270009A04A0909B04B0909C040E940B088111DA
:10128000E7CF0E94EE086C197D098E099F0986162A
:101290009706A806B90668F41092B1041092B30438
:1012A0001092B6041092B504C093B7041092B8041B
:1012B000CFCF60E070E0CB010E94D807DECF8091F5
:1012C000930490919404DC01ED91FC910280F381F0
:1012D000E02D4AE050E067EA74E009950E94EE08CC
:1012E0006093950470939604809397049093980468
:1012F0008091AB0491E0811101C090E09093B8041B
:1013000081110FC06AE070E080E090E0CF91FF9023
:10131000EF90DF90CF90BF90AF909F908F900C9404
:10132000D807CF91FF90EF90DF90CF90BF90AF9014
:101330009F908F900895CF93DF93EC0186E00E94F9
:10134000FA08BE0183E00E94FA080E940B08882375
:10135000E1F31092B7048091B3048530B1F7DF91C7
:10136000CF91089508950895AF92BF92CF92DF92E2
:10137000EF92FF920F931F93CF93DF936C017B014A
:101380008B01040F151FEB015E01AE18BF08C017DB
:10139000D10759F06991D601ED91FC910190F0814E
:1013A000E02DC6010995892B79F7C501DF91CF9111
:1013B0001F910F91FF90EF90DF90CF90BF90AF9073
:1013C0000895CF92DF92EF92FF920F931F93CF93E6
:1013D000DF93CDB7DEB729970FB6F894DEBF0FBE07
:1013E000CDBF8C01DC0119968D919C91892B09F45C
:1013F00073C00E94B307F801C784D088E188F288DF
:101400006C157D058E059F0520F46787708B818B99
:10141000928BF801C784D088E188F2886C197D0925
:101420008E099F096C3271408105910510F3F89483
:10143000D80114968D919C9115979A83898319965A
:10144000ED91FC917F01BFEFEB1AFB0A8081898748
:10145000F80190810388F489E02DD80155968C918C
:10146000992309F448C09081982B988790818095A2
:1014700089238F838F818C8388E08B8358856F814C
:1014800049853B812C8189819A81D701508347FD11
:10149000252F3A952083262F39F0441F00C00000E5
:1014A0006083000000C0F2CF38E04D9160830000FF
:1014B000019761F7D8015496FC93EE9353974987AF
:1014C0003B832C839A83898378940E94B307F80125
:1014D0006787708B818B928B29960FB6F894DEBF4D
:1014E0000FBECDBFDF91CF911F910F91FF90EF9075
:1014F000DF90CF9008959081982B98879081809568
:1015000089238F838F818E8388E08D8358856F81B7
:1015100049853D812E8189819A81D701508347FD7C
:10152000252F00C000C0208300C000C000C000C044
:1015300000C060830000262F3A9541F0441F000050
:1015400000C000C000C000C000C0E8CF38E04D912E
:1015500000C0608300C0019709F7D8015496FC933E
:10156000EE93539749873D832E83ACCFCF93DF9380
:10157000EC018E819F8197FD07C061E00E94820788
:1015800060E08E810E94540781E08983DF91CF91D2
:10159000089520918D0230918E022817390771F439
:1015A00090918B0280918C02981741F0E0918B0210
:1015B000F0E0EC5BFD4F808190E008958FEF9FEFAE
:1015C0000895EF92FF920F931F93CF93DF93DC0167
:1015D0005C96ED90FC905D97E114F10479F481E064
:1015E00090E013969C938E93129790E080E0DF91A9
:1015F000CF911F910F91FF90EF9008955196ED912B
:10160000FC91529750968C915097982F90950FB7C8
:101610005E962C915E97122F127021FD6095F894C2
:101620002081112319F1282B2083E7012197F1F75D
:1016300028E0462F50E0308160FF1AC0382B3083FD
:10164000E7012197F1F7BA0175956795215089F760
:10165000112381F08081892380830FBF5C968D9157
:101660009C910197F1F781E090E0C1CF2923DCCF75
:101670003923E5CF9081892BEFCF20918D023091D6
:101680008E022817390761F480918C0220918B0219
:1016900090E0805C9F4F821B91098F73992708957A
:1016A00090E080E0089520918D0230918E022817FD
:1016B0003907B9F490918B0280918C02981789F0C8
:1016C000E0918B02F0E0EC5BFD4F808120918B027A
:1016D00030E02F5F3F4F2F73332720938B0290E032
:1016E00008958FEF9FEF0895EF92FF920F931F934E
:1016F000CF93DF93EC01EC80FD806E157F050CF03D
:1017000070C057FF04C0240F351F50E040E08E81A9
:101710009F81FA01E20FF31F8E179F071CF49C01B3
:10172000241B350B121613060CF05BC0922F842F6E
:101730008695869586958E9DD0018F9DB00D11243E
:101740006A0F7B1FAF8DB8A1A60FB71F477049F175
:1017500088E0841B482F682F70E0FB01E059FA4FA6
:10176000E491281708F063C0621B71092FEF30E085
:1017700002C0359527956A95E2F7E22301301105FD
:1017800039F0B0F10230110561F58C91E82702C003
:101790008C91E82BEC93941720F12C813D81A20FC2
:1017A000B31FE92FE41BE83078F00230110521F572
:1017B0008E2F9C9190959C932C813D81A20FB31FFD
:1017C00088508830B0F7E770EE2359F0F0E0E85920
:1017D000FA4FE49101301105F9F010F102301105D2
:1017E00019F1DF91CF911F910F91FF90EF90089524
:1017F000E0958C91E823CECF81E00115110509F425
:1018000080E081959E2F8C932C813D81A20FB31F88
:1018100098509830C0F7D7CF8C91E82BEC93E1CF5C
:10182000E0958C91E823FACF8C91E827F7CF01302F
:10183000110509F4ADCFE0F20230110509F4A5CF8E
:10184000AE0DBF1DAECF0F931F93CF93DF9377FFE6
:1018500004C0260F371F70E060E0DC011496CD91C4
:10186000DC91FB01E20FF31FCE17DF071CF49E0192
:10187000261B370B121613064CF5FA0157FD379647
:10188000A3E0F595E795AA95E1F7EC9FD001ED9FD0
:10189000B00DFC9FB00D11246A0F7B1FDC015F9619
:1018A000ED91FC91E60FF71F4770552781E090E01E
:1018B00001C0880F4A95EAF7482F0130110559F009
:1018C000A8F02E0F3F1F02301105E1F0DF91CF91FC
:1018D0001F910F9108952E0F3F1FE217F307B1F3E9
:1018E0008191DF011197842B8C93F7CF80952E0F78
:1018F0003F1FE217F30751F39191DF0111979823EE
:101900009C93F7CFE217F30709F38191DF01119759
:1019100084278C93F7CF0F931F93FA01DC0156961F
:101920004C9156974230E9F04330A1F1413061F5D6
:1019300014964D915C91DA01AE1BBF0BFD01E21BC9
:10194000F30B77FD0BC0DC0116964D915C9164178B
:10195000750724F4AB01BF010E94230C1F910F9166
:10196000089514964D915C91DA01A61BB70BBD0149
:1019700061507109DC0116964D915C91DA01AE1B44
:10198000BF0BFD01E21BF30B77FDE8CFAF010E9417
:10199000740BE4CF16964D915C91DA01A61BB70B40
:1019A000BD0161507109CDCF0F931F93FA01DC0186
:1019B00056964C9156974230A9F0433091F1413000
:1019C00019F514964D915C91DA01AE1BBF0BFD0128
:1019D0003197F7FD04C0AB01BF010E94740B1F914A
:1019E0000F91089514964D915C91DA01A61BB70BE7
:1019F000BD01DC0116964D915C91DA01AE1BBF0B67
:101A0000FD013197621B730BF7FDE9CFDC011696E0
:101A10004D915C91E417F50714F7AF010E94230C78
:101A2000DECF16964D915C91DA01A61BB70BBD0176
:101A3000621B730BCECFFC0177FD64C0808591855E
:101A4000681779070CF05EC057FD5CC082859385EE
:101A5000481759070CF056C086898230B1F08330A0
:101A600029F1813041F484819581841B950BAB0170
:101A7000BC01615071092130310509F108F443C0FE
:101A80002230310509F463C0089584819581DC0119
:101A9000A61BB70BBD016150710986819781DC01DE
:101AA000A41BB50BAD0141505109E5CF868197814B
:101AB000861B970BBA01AC0141505109DCCFCA011A
:101AC00057FD0796A3E095958795AA95E1F7A48120
:101AD000B5818A9F90018B9F300D9A9F300D112404
:101AE000620F731F078CF0A1E02DE60FF71F477000
:101AF000552721E030E001C0220F4A95EAF78081A6
:101B0000822B80830895CA0157FD079633E095958F
:101B100087953A95E1F7A481B5818A9F90018B9FC3
:101B2000300D9A9F300D1124620F731F078CF0A1A6
:101B3000E02DE60FF71F4770552781E090E001C0C8
:101B4000880F4A95EAF7809590818923DACFCA01F8
:101B500057FD079623E0959587952A95E1F7A4818F
:101B6000B5818A9F90018B9F300D9A9F300D112473
:101B7000620F731F078CF0A1E02DE60FF71F47706F
:101B8000552721E030E001C0220F4A95EAF7808115
:101B90008227B7CF08958EBD00000DB407FEFDCF9C
:101BA0008EB508958CBD9DBD08950895FC016370A8
:101BB000668B8481958126813781613039F063306D
:101BC00029F091878087338722870895318720877E
:101BD0009387828708952F923F924F925F926F92E0
:101BE0007F928F929F92AF92BF92CF92DF92EF92AD
:101BF000FF920F931F93CF93DF93CDB7DEB76A9712
:101C00000FB6F894DEBF0FBECDBF9A8F898F7A834F
:101C100069834A01D22E18870F833701BC2CDC015F
:101C200059962D913C915A972115310509F015C10E
:101C300018968D919C911997681779070CF0D7C168
:101C40001A968D919C91481759070CF0D0C14C2CD5
:101C5000512CB6E0CB9E600D711D11247C876B87E3
:101C6000161617060CF0C3C1EA2DF0E0FA87E987D3
:101C700093E0EE0FFF1F9A95E1F7F88BEF87CF0106
:101C8000840F951F181619060CF0B1C1A98DBA8DD5
:101C900058968C91811104C0BFEABD1508F4D39405
:101CA000A98DBA8DED91FC9111970284F385E02DF9
:101CB000CD010995B5E0DB9EC0011124E981FA81CF
:101CC000FC83EB83312C212C9C0128593F4F388F0A
:101CD0002F8B4A2D50E05E8B4D8BEF89F88DE20DF6
:101CE000F31D44919E828D82D12CC12C69817A8111
:101CF000620D731D7A8B698B842F90E09C8B8B8B8C
:101D0000E98DFA8DA081B18140FF82C0F1E0BF1260
:101D10006FC0AF126DC01C96ED91FC912F8138857C
:101D2000A4014C0D5D1D69897A89898D9A8D09956B
:101D3000EB89FC89F595E7954E2F5FEFC51AD50A1B
:101D40006D817E818D899E89680F791F7E836D8369
:101D500098E0C916D10481F6AFEF2A1A3A0AEB814E
:101D6000FC81E40DF51DFC83EB83F5E02F163104B7
:101D700009F0B3CF2F81388526153705B9F0A98D25
:101D8000BA8DED91FC91B1E0BB1257C0AB1255C0BA
:101D900069817A816B5F7F4F0088F189E02D830133
:101DA00028E030E0A401898D9A8D0995A98DBA8D1E
:101DB000ED91FC9111970688F789E02DCD016A9687
:101DC0000FB6F894DEBF0FBECDBFDF91CF911F914C
:101DD0000F91FF90EF90DF90CF90BF90AF909F90CA
:101DE0008F907F906F905F904F903F902F900994CD
:101DF0001E96ED91FC91EF80F88409851A85920179
:101E00004D815E816B817C81898D9A8D099590CF02
:101E10002F8138852615370509F48ACF31E0B312B2
:101E200007C0A31205C01C96ED91FC91930178CFD9
:101E30001E96ED91FC917301E0CF6B857C85641952
:101E400075090684F785E02D73010F8518899201C5
:101E5000A401898D9A8D0995A9CFF90134969491A1
:101E6000329745915491D91AB7E0DB9E400D511D30
:101E70001124F901259134913C8B2B8BFA0125908B
:101E80003490FA013296749031963491398B3296AF
:101E900064903196449041E04C1518F04A1508F0D2
:101EA0007FC0662D062C000C770B7C836B83842D02
:101EB000042C000C990B9E838D83A98DBA8DED9116
:101EC000FC9111970284F385E02DCD010995512CE9
:101ED000D12CC12CEA2DF0E0FA87E9872B2D30E0D8
:101EE0003C872B87A401440D511D47FC5A95588F00
:101EF0004F8B69817A81660D711D67FC7A957E87AB
:101F00006D877989C71608F051CF2C2D30E04D81AF
:101F10005E81420F531FA985BA854A9FC0014B9F1E
:101F2000900D5A9F900D1124FC01E80DF91DF88BBE
:101F3000EF87852D612C4F89588D420F531F5E8B83
:101F40004D8B671408F050C044244394480E8770AA
:101F500041F4C1010196EB89FC89E20DF31DD49097
:101F60001C01D7FE19C0A98DBA8DED91FC91662D8B
:101F700070E0B1E0BB1219C0AB1217C02D853E85D1
:101F8000620F731F0484F585E02D2F8138854D89FC
:101F90005E89898D9A8D0995DD0C6394842DD1CF4E
:101FA0001E821D821C821B8288CF4B815C81640F44
:101FB000751FAB85BC856A9FC0016B9F900D7A9F92
:101FC000900D112469817A81680F791F0684F78545
:101FD000E02DEF80F88409851A859D014F85588989
:101FE000898D9A8D0995D8CF570CC3948ACF6A965C
:101FF0000FB6F894DEBF0FBECDBFDF91CF911F911A
:102000000F91FF90EF90DF90CF90BF90AF909F9097
:102010008F907F906F905F904F903F902F9008959A
:102020008F929F92AF92CF92EF92FF920F931F9356
:10203000CF93DF93EC01262F898D9A8D009709F0BD
:1020400051C06A30D1F41D861C868D8948E0849F7A
:10205000900111248E859F85820F931F9F878E8705
:1020600081E090E0DF91CF911F910F91FF90EF9071
:10207000CF90AF909F908F9008956D3089F3CC886A
:10208000AD888F898823C1F08C859D8536E0C39EFD
:10209000800D911D1124488559854817590764F40E
:1020A0004E855F851D861C8638E0A39EC0011124E5
:1020B000840F951F9F878E87EA88FB880889198976
:1020C0004E855F856C857D85CE010E94EB0D2C8948
:1020D0008C859D8546E0249F800D911D11249D8750
:1020E0008C87BECF6A3069F41D861C86FC01389649
:1020F000E4912D898E859F85E29F800D911D11248D
:10210000ADCF6D3009F4ACCFFC0134963491631738
:1021100008F4A6CF3296E491E61708F4A1CFFC01AB
:10212000329685909490462F431B342F47E0349F7E
:10213000800C911C1124F401329634913196E49173
:102140003323A9F1EE2399F1CC88F4013596E4917B
:10215000AD884F89442301F10E2E000CFF0BE30FD5
:10216000F11DCE9EA001CF9E500D11246C857D8562
:10217000460F571F68857985641775076CF44E857F
:102180005F851D861C86FC013896E491AE9E400D4D
:10219000511D11245F874E87EA88FB8808891989B9
:1021A0004E855F856C857D85CE010E94EB0DF40127
:1021B0003496E4912C898C859D85E29F800D911D3C
:1021C00011248DCF6F927F928F929F92AF92BF9288
:1021D000CF92DF92EF92FF920F931F93CF93DF93F3
:1021E000EC016B015A0139014801E881F98102844F
:1021F000F385E02D0995E881F9810288F389E02DC6
:1022000087019301A501B601CE010995A501480DED
:10221000591D41505109E881F9810288F389E02D67
:102220009301B601CE010995E881F9810088F18911
:10223000E02D9401A501B601CE010995C60CD71C6D
:10224000B60161507109E881F9810088F189E02DBA
:102250009401A501CE010995E881F9810688F789E5
:10226000E02DCE01DF91CF911F910F91FF90EF9064
:10227000DF90CF90BF90AF909F908F907F906F90A6
:1022800009946F927F928F929F92AF92BF92CF925A
:10229000DF92EF92FF920F931F93CF93DF935C0136
:1022A000EB016A01490138018701DC01ED91FC91E4
:1022B0006217730719F5641675062CF0962D872D95
:1022C0003A01C92ED82E9601261937092F5F3F4FA4
:1022D000048CF58DE02DA301BE01C5010995DF91A8
:1022E000CF911F910F91FF90EF90DF90CF90BF9013
:1022F000AF909F908F907F906F90089546155705EF
:1023000091F42617370724F0892D4B01C22FD82FBF
:102310009E01281939092F5F3F4F068CF78DE02D5C
:10232000A601B401DACF0284F385E02D0995D50129
:10233000ED91FC910488F589E02D83019401A601BB
:10234000BE01C5010995D501ED91FC910688F7897B
:10235000E02DC501DF91CF911F910F91FF90EF907C
:10236000DF90CF90BF90AF909F908F907F906F90B5
:102370000994EF92FF920F931F93DC011A960D912F
:102380001C911B9718962D913C911997ED91FC91FA
:1023900000A0F1A1E02D7B0150E040E070E060E0A2
:1023A00009951F910F91FF90EF9008954F925F92C2
:1023B0006F927F928F929F92AF92BF92CF92DF9255
:1023C000EF92FF920F931F93CF93DF936C012B013A
:1023D0005A0139014801DC01ED91FC910284F38539
:1023E000E02D0995E201640C751CD601ED91FC917C
:1023F000C615D7055CF40088F189E02D87019401AA
:10240000A501BE01C60109952196EFCF0688F7897F
:10241000E02DC601DF91CF911F910F91FF90EF90BA
:10242000DF90CF90BF90AF909F908F907F906F90F4
:102430005F904F9009948F929F92AF92BF92CF92EC
:10244000DF92EF92FF920F931F93CF93DF93EC01F4
:102450005B014A016901E881F9810284F385E02D7D
:10246000099595012C0D3D1D21503109E881F98117
:102470000488F589E02D78018401A401B501CE011D
:102480000995E881F9810688F789E02DCE01DF9171
:10249000CF911F910F91FF90EF90DF90CF90BF9061
:1024A000AF909F908F9009948F929F92AF92BF921E
:1024B000CF92DF92EF92FF920F931F93CF93DF9310
:1024C000EC015B014A0169017801E881F98102842C
:1024D000F385E02D0995C80CD91C8601015011091E
:1024E000E881F9810488F589E02D9501A401B50101
:1024F000CE010995E881F9810688F789E02DCE01A2
:10250000DF91CF911F910F91FF90EF90DF90CF90CF
:10251000BF90AF909F908F900994EF92FF920F938E
:102520001F93DC01ED91FC9100A0F1A1E02D099534
:102530001F910F91FF90EF9008950F931F93DC016F
:10254000ED91FC91068CF78DE02D09951F910F916F
:1025500008950F931F93DC01ED91FC91048CF58D90
:10256000E02D09951F910F910895DC01ED91FC91EB
:102570000084F185E02D09943F924F925F926F9213
:102580007F928F929F92AF92BF92CF92DF92EF9203
:10259000FF920F931F93CF93DF935C017B014A015E
:1025A0006901390187E0680E711C93E075946794A6
:1025B0009A95E1F72B01400E511E10E000E0312CFE
:1025C000D0E0C0E0CE0187709927330C892B59F4F5
:1025D000FE0183E0F595E7958A95E1F7E00FF11F9D
:1025E000E80DF91D349037FE0AC021E030E0A70164
:1025F000B5016C0F7D1F89E593E00E94B51221960D
:10260000CC16DD06F9F68FEFE81AF80A060D171D4D
:10261000E414F504A9F6DF91CF911F910F91FF907B
:10262000EF90DF90CF90BF90AF909F908F907F9072
:102630006F905F904F903F9008952F923F924F92EE
:102640005F926F927F928F929F92AF92BF92CF9242
:10265000DF92EF92FF920F931F93CF93DF9300D0FF
:1026600000D000D0CDB7DEB73C016A013E832D8398
:10267000FC82EB825801A41AB50AB7FE03C0B194DC
:10268000A194B1088D809E80861A970A97FE03C098
:102690009194819491088A149B045CF0902F812F6F
:1026A0000D811E819D838E839C2D8D2D6B01692F45
:1026B000782F0C151D055CF09D818E817E836D83C6
:1026C000692F782F902F812F8601C92ED82E1601C1
:1026D000201A310A2B012D813E81421A530A57FEDE
:1026E00003C0519441945108710137FE03C03FEF7C
:1026F000E31AF30AF594E7948D819E818617970774
:102700005CF5A1E0B0E0BA83A983C016D1064CF114
:10271000D301ED91FC910484F585E02D2B813C8162
:10272000A8016D817E818A149B041CF04D815E811D
:10273000B801C3010995E418F508F7FE0AC02D8118
:102740003E8189819A81280F391F3E832D83E20CB7
:10275000F31C0F5F1F4FD9CF2FEF3FEF3A83298331
:10276000D4CF26960FB6F894DEBF0FBECDBFDF9153
:10277000CF911F910F91FF90EF90DF90CF90BF907E
:10278000AF909F908F907F906F905F904F903F9011
:102790002F90089508952091FA01260F3327331FB3
:1027A00021323105ECF420911E02FC0190E080E022
:1027B000243069F082E00895A091FA012191AC01E2
:1027C00046525E4FA40FB52FB11D2C93019686176C
:1027D00098F38091FA01680F6093FA0180E0089500
:1027E00081E0089510921E0281E0809320021092F1
:1027F0001F0261E082E10E94540761E083E10E94D0
:102800005407E9EBF0E080818E7F808380818D7FAB
:10281000808388E48093B80085E48093BC000895A9
:10282000CF93DF9391E09093D9018823B9F0C091C1
:10283000B800D091BA008091BC008A7B8093BC0024
:1028400060E082E10E94540760E083E10E94540747
:102850000E94F213D093BA00C093B800DF91CF91D9
:102860000895E0918A0280918902E81730F4F0E03F
:10287000EC54FE4F808190E008958FEF9FEF089514
:1028800090918A02809189022FEF3FEF981748F4C8
:10289000E92FF0E0EC54FE4F208130E09F5F9093F1
:1028A0008A02C90108958091890290918A02891B48
:1028B000990B0895CF92DF92EF92FF920F931F939F
:1028C000CF93DF937C01CB018A012091AF022223B9
:1028D00089F0EB016B01C40ED51ECC15DD0569F046
:1028E0006991D701ED91FC910190F081E02DC70134
:1028F0000995F3CF642F0E94CB13C801DF91CF91CC
:102900001F910F91FF90EF90DF90CF900895CF939C
:10291000DF931F92CDB7DEB769832091AF022223E8
:10292000F9F02091AC02203258F021E030E0FC01B7
:102930003383228390E080E00F90DF91CF91089560
:102940008091AD02E82FF0E0EC56FE4F9981908324
:102950008F5F8093AD028093AC0281E090E0ECCF7A
:1029600061E0CE0101960E94CB13F7CFCF92DF92A8
:10297000EF92FF920F931F93CF93DF93D091AC020E
:1029800081E0D13208F09CC0C091AE020E94B30732
:102990006B017C0180911E0281116CC082E08093EA
:1029A0001E0281E0809320028FEF80931D0210921F
:1029B0004202D0934102A4E9B1E0E1E2F2E080E01A
:1029C000D8138DC01092430280914302CC0FC82BC4
:1029D000C093430280911F02813009F084C010929D
:1029E0001F020E94B3076B017C0180914302809318
:1029F000BB008091D5019091D601A091D701B091F3
:102A0000D801892B8A2B8B2BA1F00E94B307009150
:102A1000D5011091D6012091D7013091D8016C19C0
:102A20007D098E099F09061717072807390708F43B
:102A300042C08091BC0083FDD8CF85EC8093BC0060
:102A40000E94B3076B017C0180911E02823009F461
:102A50004CC080911D028F3F09F469C080911D0216
:102A6000803209F466C080911D02803309F463C08E
:102A700084E026C08091D5019091D601A091D70124
:102A8000B091D801892B8A2B8B2B09F483CF0E941C
:102A9000B3070091D5011091D6012091D701309153
:102AA000D8016C197D098E099F0906171707280799
:102AB000390708F06FCF8091D4010E94101485E08F
:102AC0001092AD021092AC021092AF02DF91CF9142
:102AD0001F910F91FF90EF90DF90CF9008959D91FF
:102AE00091938F5F6DCF85EEA9CF8091D5019091A5
:102AF000D601A091D701B091D801892B8A2B8B2BBD
:102B000009F4A2CF0E94B3070091D5011091D6011C
:102B10002091D7013091D8016C197D098E099F0948
:102B2000061717072807390708F08ECFC4CF80E0B3
:102B3000C7CF82E0C5CF83E0C3CFEF92FF920F9360
:102B40001F93CF93DF937C01C62F809176039091E2
:102B50007703009709F459C020917A0331E030934C
:102B6000AF022093AE021092AD021092AC02DC01D3
:102B7000ED91FC910190F081E02D60E009958701D5
:102B8000EE24E394F12CD1E0C15080917603909132
:102B90007703CF3F91F1B0E2EB16F104D8F00E9439
:102BA000B614809176039091770320917A03D093A5
:102BB000AF022093AE021092AD021092AC02DC0183
:102BC000ED91FC910190F081E02D60E00995EE24FB
:102BD000E394F12C8091760390917703F80164914E
:102BE000DC01ED91FC910190F081E02D0995BFEFA2
:102BF000EB1AFB0A0F5F1F4FC7CFDF91CF911F91D9
:102C00000F91FF90EF900C94B614E0918603F09131
:102C10008703908180918C0380958923808387012D
:102C2000C15008F438C0F8018491209174033091A8
:102C30007503232B29F00E94CB0D0F5F1F4FF0CFA0
:102C400028E030E040E8E0918203F0918303909126
:102C50008A03582F5423D9F05081952B9083E0910B
:102C60008403F0918503908150918B03952B908381
:102C7000E0918403F0918503508190918B039095AE
:102C800095239083469521503109E9F6D6CF50819E
:102C900090959523E3CFDF91CF911F910F91FF90F6
:102CA000EF9008951F93CF93DF93EC018D8D9E8D50
:102CB000009721F1162F29A131E03093AF02209324
:102CC000AE021092AD021092AC02DC01ED91FC91CB
:102CD0000190F081E02D60E009958D8D9E8DDC01E5
:102CE000ED91FC910190F081E02D612F09958D8D82
:102CF0009E8DDF91CF911F910C94B614ADA5BEA50A
:102D00009C918BA9809589238C938B8D9C8D892B8D
:102D100031F0862FDF91CF911F910C94CB0D28E0DD
:102D200030E080E8A9A5BAA599A9462F4823C1F0AB
:102D30004C91942B9C93ABA5BCA59C914AA9942B38
:102D40009C93ABA5BCA54C919AA9909594239C9378
:102D500086952150310931F7DF91CF911F91089568
:102D60004C9190959423E6CFDF92EF92FF920F93D0
:102D70001F93CF93DF938091760390917703892BF4
:102D800009F498C020918E0330918F0340919003F5
:102D90005091910360E074E284EF90E00E94552826
:102DA0002051310941095109569547953795279585
:102DB0002093B80065E081EB9AE00E949D15609138
:102DC0005D03615089E593E00E94521620915F03F4
:102DD00030916003C901079697FD079633E09595FA
:102DE00087953A95E1F720915D0330915E03829FCC
:102DF0008001839F100D929F100D1124C0917803C4
:102E0000D091790380917603909177030C0F1D1F69
:102E1000009709F48FC020917A0331E03093AF021C
:102E20002093AE021092AD021092AC02DC01ED9143
:102E3000FC910190F081E02D60E40995EE24E3948B
:102E4000F12CDD24D39480917603909177030C17B5
:102E50001D0709F446C0B0E2EB16F104D8F00E9459
:102E6000B614809176039091770320917A03D092E3
:102E7000AF022093AE021092AD021092AC02DC01C0
:102E8000ED91FC910190F081E02D60E40995EE2434
:102E9000E394F12C80917603909177036991DC01A2
:102EA000ED91FC910190F081E02D0995BFEFEB1AB7
:102EB000FB0AC9CF8091740390917503892B31F07F
:102EC00080919703909198030E94D20DE09188031E
:102ED000F0918903908180918D038095892380836F
:102EE00069CF0E94B6148091760390917703892B65
:102EF00009F461C0209192033091930340919403AF
:102F00005091950360E074E284EF90E00E945528B0
:102F10002051310941095109569547953795279513
:102F20002093B800DF91CF911F910F91FF90EF9008
:102F3000DF900895E0918603F0918703808190915E
:102F40008C03892B80830C171D0769F289912091CE
:102F5000740330917503232B19F00E94CB0DF3CF2E
:102F600028E030E040E8E0918203F0918303909103
:102F70008A03582F5423D9F05081952B9083E091E8
:102F80008403F0918503908150918B03952B90835E
:102F9000E0918403F0918503508190918B0390958B
:102FA00095239083469521503109E9F6CCCF508185
:102FB00090959523E3CFE0918803F0918903808178
:102FC00090918D03892B8083ADCF1F93CF93DF9397
:102FD000EC01162F8D8D9E8D892BB1F12DA93EA967
:102FE0004FA958AD60E074E284EF90E00E9455284C
:102FF0002051310941095109569547953795279533
:103000002093B80066EA111167EACE010E945216B9
:103010008D8D9E8D892B41F129AD3AAD4BAD5CADC7
:1030200060E074E284EF90E00E945528205131095D
:103030004109510956954795379527952093B80032
:10304000DF91CF911F9108958B8D9C8D892B21F05D
:103050008EAD9FAD0E94D20DEFA5F8A990818CA9ED
:10306000809589238083CECFEFA5F8A980819CA984
:10307000892B8083E5CF90E080E0089520915F0365
:1030800030916003C901079697FD079623E0959557
:1030900087952A95E1F720915D0330915E03829F29
:1030A000A001839F500D929F500D112470E060E0AD
:1030B00080917803909179030C94DE290E94D9299C
:1030C000FB0101900020E9F73197AF01461B570B38
:1030D000DC01ED91FC910280F381E02D09940F93C6
:1030E0001F93CF93DF938C01D0E0C0E0F801EC0F89
:1030F000FD1F6491662341F080EB92E00E948106FF
:10310000892B11F02196F2CF68E871E080EB92E014
:103110000E9460188C0F9D1FDF91CF911F910F911E
:1031200008958F929F92AF92BF920F931F93CF9368
:10313000DF93CDB7DEB7A1970FB6F894DEBF0FBE11
:10314000CDBF19A2423008F44AE08E010F5D1F4F37
:10315000842E912CB12CA12CA50194010E945528FC
:10316000E62FB901CA01EA3004F5E05DD801EE931B
:103170008D01232B242B252B79F790E080E01097ED
:1031800029F0BD0189E593E00E946018A1960FB671
:10319000F894DEBF0FBECDBFDF91CF911F910F918D
:1031A000BF90AF909F908F900895E95CDFCFCF9252
:1031B000DF92EF92FF92CF93DF936B017C016DE280
:1031C00089E593E00E941010EC0166277727CB0178
:1031D0006C197D098E099F094AE00E9491188C0F95
:1031E0009D1FDF91CF91FF90EF90DF90CF900895DA
:1031F000CF93DF93BC01990F880B990B97FF0EC0FB
:103200000E94D718EC0168E871E089E593E00E941C
:1032100060188C0F9D1FDF91CF9108954AE00E94A6
:103220009118F0CFBC01990F880B990B97FD0C9466
:10323000D7184AE00C94911885ED8093BC008091DA
:10324000D5019091D601A091D701B091D8010796F0
:10325000A11DB11D23E0B695A795979587952A9551
:10326000D1F72091BC0024FD03C010921E020895E6
:103270004091D5015091D6016091D7017091D8014C
:10328000452B462B472B69F30097A105B10541F06B
:103290002AE22A95F1F700C00197A109B109E1CF0F
:1032A0008091D4010C9410141F920F920FB60F92BC
:1032B00011242F933F938F939F93AF93BF9380914C
:1032C000A4029091A502A091A602B091A70230910C
:1032D000A30223E0230F2D3758F50196A11DB11D40
:1032E0002093A3028093A4029093A502A093A60228
:1032F000B093A7028091A8029091A902A091AA027E
:10330000B091AB020196A11DB11D8093A8029093CC
:10331000A902A093AA02B093AB02BF91AF919F9173
:103320008F913F912F910F900FBE0F901F90189586
:1033300026E8230F0296A11DB11DD2CF1F920F9236
:103340000FB60F9211242F933F934F935F936F9378
:103350007F938F939F93AF93BF93EF93FF9380EBF4
:1033600092E00E945F06FF91EF91BF91AF919F9114
:103370008F917F916F915F914F913F912F910F901E
:103380000FBE0F901F9018951F920F920FB60F92BD
:1033900011242F938F939F93EF93FF93E091C0029B
:1033A000F091C1028081E091C602F091C70282FDD6
:1033B0001BC090818091C9028F5F8F732091CA02D8
:1033C000821741F0E091C902F0E0E055FD4F958F82
:1033D0008093C902FF91EF919F918F912F910F9050
:1033E0000FBE0F901F9018958081F4CF1F920F92FF
:1033F0000FB60F9211242F933F934F935F936F93C8
:103400007F938F939F93AF93BF93EF93FF93E0913D
:103410008D02F0918E02309749F0A685B78585859B
:10342000968D91FF14C09C918923A1F4FF91EF9197
:10343000BF91AF919F918F917F916F915F914F91CC
:103440003F912F910F900FBE0F901F9018959C9158
:10345000892361F7A389B4899C9185898095892303
:103460008C93868997890197F1F7608D718DA68578
:10347000B785558538E020E0CB010197F1F7822F21
:1034800090E095958795282F4C91452309F0206869
:10349000315091F7868D81FD209580918C0290E0CE
:1034A00001968F73992730918B02381799F0A0916C
:1034B0008C02B0E0AC5BBD4F2C9380938C02828D6C
:1034C000938D0197F1F7A389B4898C919589892B04
:1034D0008C93ACCF868D8160868FF1CF1F920F9237
:1034E0000FB60F9211242F933F934F935F936F93D7
:1034F0007F938F939F93AF93BF93EF93FF938091AD
:10350000B900887F803609F44AC0F0F5883209F4A2
:10351000A7C018F5803109F49BC0B8F4882309F4DA
:10352000F9C0883009F494C0FF91EF91BF91AF9139
:103530009F918F917F916F915F914F913F912F91CB
:103540000F900FBE0F901F901895883109F488C016
:10355000803251F780931D0214C0803409F49DC05D
:1035600040F48033B9F38833F9F680931D0285EC7B
:10357000B0C0803509F485C0883509F496C0883418
:1035800099F60E941C19D0CF883909F48CC038F5FF
:10359000883729F050F4883611F0803729F683E017
:1035A00080931E0210921C0257C0883809F47BC019
:1035B000803919F0803809F0B7CF80911C02803231
:1035C00008F071C0E0911C0281E08E0F80931C0214
:1035D0008091BB00F0E0E450FE4F80833DC0803B13
:1035E00039F0E0F4803A09F479C0883A09F09CCFC8
:1035F00084E080931E021092FB011092FA01E09188
:103600008702F091880209958091FA0181110FC01B
:1036100081E08093FA011092DA0109C0803C09F43C
:10362000A6CF883C09F4A3CF883B09F07DCFE09179
:10363000FB0181E08E0F8093FB01F0E0E652FE4F2C
:1036400080818093BB009091FB018091FA0129C099
:10365000809143028093BB0085EC8093BC0064CFD3
:103660009091420280914102981758F5E0914202F0
:1036700081E08E0F80934202F0E0EF5DFD4F80818C
:10368000E9CFE091420281E08E0F80934202809167
:10369000BB00F0E0EF5DFD4F80839091420280918E
:1036A00041029817C8F285E8D8CFE091420281E044
:1036B0008E0F809342028091BB00F0E0EF5DFD4FE2
:1036C00080838091200281115CCF81E080931F0272
:1036D00084EA8093BC0010921E0226CF85EC809372
:1036E000BC0010921E0280911C02803230F4E091E6
:1036F0001C02F0E0E450FE4F108260911C0270E06A
:10370000E0918502F09186028CEF91E0099510928C
:103710001C020ACF10921D0234CF0F931F93CF9338
:10372000DF93EC01162F072F8981882339F08E81D2
:103730009F8197FD03C060E00E9482071E830F8374
:103740008981882341F061E0812F0E94820760E037
:10375000812F0E945407812F902FFC01EB58F54FC9
:10376000E491F0E0EE0FFF1FEF59F54F25913491F2
:103770003C8B2B8BFC01E757F54FE491ED8BDF91F0
:10378000CF911F910F910895EF92FF920F931F9386
:10379000CF93DF93EC017B0189859A850E945029A4
:1037A0009E858B85981701F184E090E08E9D8001C5
:1037B0008F9D100D9E9D100D11241D830C83C8013B
:1037C0000E94B4289A878987009789F0A80170E041
:1037D00060E00E94DE29FB82EA82DF91CF911F9197
:1037E0000F91FF90EF90089583E090E0DFCF1D826E
:1037F0001C821B821A82F1CF8F929F92AF92BF924E
:10380000CF92DF92EF92FF920F931F93CF93DF93AC
:10381000E0EBF2E01382128288EE93E0A0E0B0E0E9
:1038200084839583A683B7832CE331E0318320839F
:1038300025EC30E03587248724EC30E03787268775
:1038400020EC30E0318B208B21EC30E0338B228B6D
:1038500022EC30E0358B248B26EC30E0378B268B46
:10386000118E128E138E148E2DE4C22E23E0D22ED2
:10387000F6011382128284839583A683B7838EE434
:1038800091E091838083CDE8D4E084EF91E0A0E0E3
:10389000B0E08C879D87AE87BF878AE0ECE1F1E0DE
:1038A000A7EAB4E001900D928A95E1F71CA202E02C
:1038B0000DA31AA61BA68BE090E09D838C838AE063
:1038C00090E09B838A83E7E8F4E01582148281E02C
:1038D00090E09183808387E00E942B07E5E7F4E086
:1038E000978386831382128286E090E09187808797
:1038F00087E090E09387828738E0832E912C95862D
:103900008486118A108A17861686CCEBD3E0198A32
:103910001C8A1D8A1E8A1F8A1E821D8280E091E0F9
:1039200098878F8340E8A42EB12CBA86A9861B867F
:1039300011E01C871D8683E08E87EE24EA94FE2C1E
:10394000F88AEF8688E48A83DB8ACA8A85E38883DB
:1039500088E08B831C8284E08983198E18A21AA2C6
:1039600019A21FA218A619A61AA61EA31BA31CA261
:103970000DA3188F68E070E084ED93E00E94C41BF3
:1039800061E070E084ED93E00E948D1B1FA61EAAEB
:1039900018AE1FAA1092F9031092FA031092FB03BB
:1039A0001092FC031CAF19AF1AAE0BAF1EA768E054
:1039B00070E08AEE93E00E94C41B62E070E08AEE41
:1039C00093E00E948D1B80E092E3AFEFB0E0809324
:1039D000000490930104A0930204B09303048FEFBA
:1039E0009FEFAFEFB0E08093040490930504A093A1
:1039F0000604B093070480E09FEFAEE1B0E080934F
:103A0000080490930904A0930A04B0930B048FEF69
:103A100090E0A8ECB0E080930C0490930D04A09388
:103A20000E04B0930F0480E098ECAFEFB0E0809309
:103A3000100490931104A0931204B093130480E037
:103A400090E0AFEFB0E08093140490931504A0933E
:103A50001604B093170410921804109219041092CF
:103A60001A0410921B048EE090E090931D04809342
:103A70001C048FE090E090931F0480931E0480E16B
:103A800090E0909321048093200481E190E0909352
:103A9000230480932204109225041092240410928F
:103AA00027041092260410922904109228041092E0
:103AB0002B0410922A0410922D0410922C041092C0
:103AC0002F0410922E0410923104109230041092A0
:103AD0003504109234041092370410923604109278
:103AE00039041092380410923B0410923A04109258
:103AF0003D0410923C0410923F0410923E04109238
:103B000041041092400483E090E090934504809338
:103B1000440424E030E030934304209342042CE03A
:103B200030E0309347042093460410924A041092E8
:103B30004904109248041092720410927104109279
:103B4000740410927304F0926404E0926304F0929F
:103B50006604E0926504F0926804E0926704F092D3
:103B60006A04E0926904F0926C04E0926B04F092B3
:103B70006E04E0926D04F0927004E0926F04E9E943
:103B8000F3E0978386831582148293838283118264
:103B9000108210869486838696878587E9E5F3E010
:103BA00013821282B582A48280E290E0978386839A
:103BB000B186A08693878287168A15861486178613
:103BC0001686158B148BF38AE28AF18AE08A178BAA
:103BD000108E128E118E80E691E091838083148E78
:103BE000138ED68EC58E10A2178E8FEF84A385A359
:103BF00086A387A380A780E89AE1A6E0B0E085AB22
:103C000096ABA7ABB0AF80EA96E8A1E0B0E081AF99
:103C100092AFA3AFB4AF80E586AF17AEDF91CF917F
:103C20001F910F91FF90EF90DF90CF90BF90AF90DA
:103C30009F908F900895789484B5826084BD84B5F8
:103C4000816084BD85B5826085BD85B5816085BD97
:103C500080916E00816080936E001092810080914F
:103C600081008260809381008091810081608093D7
:103C70008100809180008160809380008091B100FC
:103C800084608093B1008091B00081608093B00027
:103C900080917A00846080937A0080917A008260BB
:103CA00080937A0080917A00816080937A0080917D
:103CB0007A00806880937A001092C1008091780326
:103CC00090917903892B11F10E943E1820915F0396
:103CD0003091600380915D0390915E032132310544
:103CE0000CF0EBC1B9016052710977FF02C06F5F40
:103CF0007F4F759567958357910997FD019600E26F
:103D000010E023E730E04AE855E0EAC120915F0384
:103D100030916003C901079697FD0796B3E095952A
:103D20008795BA95E1F720915D0330915E03AC0170
:103D3000429FC001439F900D529F900D11240E94FD
:103D4000B4289093790380937803892B09F0BCCF32
:103D50000E94B41668EE73E080E090E00E94D807FD
:103D60000E943E180E94B41682E080936D038093F7
:103D70006E0381E090E090936C0380936B039093CB
:103D80006A03809369030E94B41660E085E00E9494
:103D9000820760E088E00E94820760E087E00E947E
:103DA000820760E086E00E94820760E083E00E9474
:103DB000820760E084E00E94820760E08CE00E945D
:103DC000820760E089E00E9482078FE190E00E9414
:103DD000B428EC01C0909104D090920400918F041B
:103DE00010919004F02E1B821A8288EE93E0A0E0DE
:103DF000B0E08C839D83AE83BF838AE291E0998398
:103E000088831F8A1E8A198E188E1B8E1A8E1D8E0D
:103E10001C8E6E8D6E7F6D7F6E8F6695617081E0FA
:103E200068278C2D0E94540761E08C2D0E94820728
:103E3000C6019927FC01E757F54FE491E88BFC0197
:103E4000EB58F54FE491F0E0EE0FFF1FEF59F54FFF
:103E5000859194919A8B898B60E0802F0E948207D4
:103E60008E8D81FD04C061E0802F0E9454070C8775
:103E70001127F801E757F54FE491ED87F801EB586A
:103E8000F54FE491F0E0EE0FFF1FE559F54F8591F6
:103E900094919F878E87D0938E04C0938D041B8E40
:103EA0001A8E198E188E1F8A1E8A8DE991E09D8FB9
:103EB0008C8F55E15F1508F43FC08DEB90E09F8B30
:103EC0008E8B8BE991E0998F888F8CE291E09B8FAC
:103ED0008A8F9091680087E08F1508F0E4C221E096
:103EE000ADE0AF1508F020E081E001C0880F2A9511
:103EF000EAF7892B809368009C852DE630E09830A6
:103F000050F02BE630E09E3030F02CE630E0963179
:103F100010F030E020E03C8B2B8B292F30E09830E4
:103F200008F0C3C281E001C0880F9A95EAF78D8B33
:103F30008C8D9D8D0197F1F78A8D9B8D892B09F1D1
:103F4000E0918D02F0918E02CE17DF07D1F030970D
:103F500039F0A389B4899C918589809589238C93B4
:103F60008E8D8E7F8E8F10928C0210928B02D0934A
:103F70008E02C0938D02EB89FC8980819D89892BFB
:103F800080838CE39AE00E946F1880918D04909159
:103F90008E04909394048093930481E08093AB0407
:103FA00084E08093B3041092B7046AE070E086E086
:103FB0000E94FA088AE29AE00E946F1880E48093D7
:103FC0007C0080917A00806480937A0080917A00EE
:103FD00086FDFCCF6091780070917900072E000C6F
:103FE000880B990B611571058105910511F00E94EF
:103FF0001A288AEE93E00E94B60A8AEE93E00E94A5
:10400000E1098AEE93E00E94870584ED93E00E9427
:10401000B60A84ED93E00E94E10984ED93E00E94EA
:1040200087058FEF9FEF90935A04809359049093E4
:104030005C0480935B0490935E0480935D04909392
:10404000600480935F049093620480936104909174
:10405000BE0388EB890F843080F42091CE03309129
:10406000CF0381E08093AF029093AE021092AD0235
:104070001092AC02C9010E94B6141092C2031092B1
:10408000C10301E010E0DD24D3946FE070E082E032
:1040900090E00E949B0968EE73E080E090E00E944F
:1040A000D8078091A20281110DC289E00E942B07DE
:1040B0000197B9F7D092A202F4CFB9016054710907
:1040C00077FF02C06F5F7F4F7595679582559109A5
:1040D00097FD019600E410E022E530E04AE657E063
:1040E000959587950E94BC1282E080937B03809116
:1040F000760390917703892B09F4DFC08CE38093DA
:104100007A0310928A02109289021092AD021092E4
:10411000AC020E94F21382EB99E0909388028093A4
:10412000870283EB99E090938602809385028091C9
:10413000810387FD1EC061E00E94820761E08091DB
:1041400081030E94540761E070E080E090E00E94EB
:10415000D80760E0809181030E9454076AE070E014
:1041600080E090E00E94D80761E0809181030E9486
:1041700054078091760390917703892B09F45CC1F1
:1041800020918E0330918F034091900350919103C1
:1041900060E074E284EF90E00E94552820513109DC
:1041A0004109510956954795379527952093B800B1
:1041B00064E086E895E00E949D1560915F03615080
:1041C00089E593E00E94521664E082E895E00E943F
:1041D0009D1580917B0360E1813009F064E189E500
:1041E00093E00E94521664E08EE795E00E949D15D0
:1041F0008FE88093960380915D0390915E038038F1
:10420000910509F032C180915F0390916003803481
:10421000910509F03AC180917B03813009F023C1F7
:104220008FE980939603C2E16AED89E593E00E94ED
:1042300052166C2F89E593E00E94521661E889E5D9
:1042400093E00E9452166091960389E593E00E94E4
:10425000521669ED89E593E00E94521680917B0326
:1042600062E2813009F061EF89E593E00E94521625
:1042700066E088E795E00E949D1580917603909115
:104280007703892B09F405C12091920330919303A0
:10429000409194035091950360E074E284EF90E0C4
:1042A0000E945528205131094109510956954795D9
:1042B000379527952093B8004BCD61E080917F031F
:1042C0000E94820761E0809180030E9482078091B2
:1042D0007F03082E000C990BFC01EB58F54FE4917D
:1042E000F0E0EE0FFF1FEF59F54F25913491309319
:1042F000870320938603FC01E757F54FE491E09391
:104300008C0380918003082E000C990BFC01EB5864
:10431000F54FE491F0E0EE0FFF1FEF59F54FA59137
:10432000B491B0938903A0938803FC01E757F54F3C
:10433000E491E0938D038C91E82BEC9380917403CE
:1043400090917503892B09F434C0CFB7F89480910C
:104350008402811127C0EFE7FAE08491E3E9FAE0F3
:104360009491E82FF0E0EE0FFF1FE95AF54FA59169
:10437000B491EC91E92321F461E08AE00E945407B2
:1043800061E08AE00E9482078CB580618CBD8CB5AB
:1043900080648CBD61E08DE00E94820761E08BE06B
:1043A0000E948207809184028F5F80938402CFBF36
:1043B000BECE61E080917D030E94820761E0809122
:1043C0007E030E94820780917D03082E000C990BCA
:1043D000FC01EB58F54FE491F0E0EE0FFF1FEF59B1
:1043E000F54F259134913093830320938203FC0190
:1043F000E757F54FE491E0938A0380917E03082EFE
:10440000000C990BFC01EB58F54FE491F0E0EE0F36
:10441000FF1FEF59F54FA591B491B0938503A09379
:104420008403FC01E757F54FE491E0938B038C91F3
:10443000E095E823EC937BCE809174039091750313
:10444000892B31F080919703909198030E94D20DAF
:10445000E0918803F0918903908180918D0380958C
:1044600089238083A5CE8FECDCCE8036910569F45C
:1044700080915F0390916003409739F480917B03B2
:10448000813029F480E180939603C2E0CDCE8FEA9B
:10449000FACFE0918803F0918903808190918D0398
:1044A000892B808355CC84E024CD9E3040F4285065
:1044B000310981E001C0880F2A95EAF738CD2E50E6
:1044C0003109F7CF64E170E083E090E00E949B093E
:1044D00064EF71E080E090E00E94D80780919D0336
:1044E00090919E0390939A038093990320919F0348
:1044F0003091A00330939C0320939B039093A102DF
:104500008093A0028431910508F0DFC083E090E041
:10451000909311018093100130939F0220939E028B
:104520000E943E180E94B416109266031092650312
:1045300010926803109267036BE871E089E593E0DD
:104540000E9460188091A0029091A1020E94F81828
:1045500080919E0290919F020E9412191092660310
:104560001092650310926803109267030E94B416BC
:1045700085E0A82EB12C93E0292E312CC090A20208
:10458000CC2009F482C464EF71E080E090E00E94E6
:10459000D8070E94CB272CE330E040E050E00E9497
:1045A00023282B013C0140929A0250929B02609278
:1045B0009C0270929D0210929902109298021092A1
:1045C0009702109296021092950210929402109205
:1045D00093020E94EE0860938F0270939002809382
:1045E000910290939202B4E14B165104610471045C
:1045F00008F0B3C16FE070E084E090E00E949B0996
:1046000064E670E080E090E00E94D8078091980214
:1046100090919902892B09F07AC085E00E942B07BE
:10462000892B79F48091870490918804019749F44B
:1046300080918B0490918C04019690938C048093CC
:104640008B0485E00E942B07909388048093870455
:1046500080918B0490918C049093950280939402A6
:10466000049744F0109397020093960210939902D6
:104670000093980262E370E080E090E00E94D80727
:104680000E94EE0840908F0250909002609091023C
:1046900070909202641975098609970940900C017F
:1046A00050900D0160900E0170900F01641575051A
:1046B0008605970508F4AACF1092970210929602E9
:1046C0001093990200939802A1CFAC014451510973
:1046D0004431510518F484E090E01ACFAC014852FF
:1046E00051094431510518F485E090E011CFAC0137
:1046F0004C5351094431510518F486E090E008CF3D
:10470000803591050CF408CF87E090E001CF8091CF
:10471000960290919702892B09F41AC16FE070E01C
:104720008BE090E00E949B0968EE73E080E090E0EF
:104730000E94D80710928404109283041092860479
:104740001092850410928C0410928B0484ED93E0F7
:104750000E94E1091092250410922404109227046B
:1047600010922604109229041092280410922B040F
:1047700010922A0410922D0410922C0410922F04EF
:1047800010922E04109231041092300410923504CD
:1047900010923404109237041092360410923904A7
:1047A0001092380410923B0410923A0410923D0487
:1047B00010923C0410923F0410923E041092410467
:1047C000109240048091960290919702019709F00F
:1047D00030C38091990390919A03833691050CF42C
:1047E00022C310929A031092990320919903309159
:1047F0009A033093A1022093A0022431310508F0DE
:1048000022C33092110120921001C901B5010E940A
:104810009A28892B09F05FC0232B09F45CC06FE054
:1048200070E088E090E00E949B0968EE73E080E011
:1048300090E00E94D80780910C0190910D01A09109
:104840000E01B0910F018B549109A109B109809318
:104850000C0190930D01A0930E01B0930F01809174
:10486000080190910901A0910A01B0910B018B54AC
:104870009109A109B1098093080190930901A093BE
:104880000A01B0930B018091040190910501A09160
:104890000601B09107018B549109A109B1098093D8
:1048A000040190930501A0930601B0930701809144
:1048B000000190910101A0910201B09103018B547C
:1048C0009109A109B1098093000190930101A0937E
:1048D0000201B093030180919B0390919C03009788
:1048E00011F41092A2022091990330919A0330930F
:1048F000A1022093A00290939F0280939E020E94A7
:104900003E180E94B416109266031092650310922E
:104910006803109267036BE871E089E593E00E94F9
:1049200060188091A0029091A1020E94F8188091D5
:104930009E0290919F020E9412191092660310929B
:10494000650310926803109267030E94B41616CE96
:104950006FE070E08CE090E0E5CE44E1441A51084D
:10496000610871086FE070E054E14516510461047C
:10497000710408F0DEC085E090E00E949B0964E6C7
:1049800070E080E090E00E94D807809198029091BA
:104990009902892B09F054C0109284041092830468
:1049A00080917D040E942B07909376048093750478
:1049B000892B21F410938404009383048091830451
:1049C000909184049093950280939402181619068E
:1049D00024F4109399020093980262E370E080E05F
:1049E00090E00E94D8070E94EE0840908F025090FD
:1049F00090026090910270909202AB01BC01441948
:104A00005509660977098091080190910901A091E3
:104A10000A01B0910B01B695A79597958795481710
:104A200059076A077B0708F4B0CF109297021092DB
:104A300096021093990200939802D0929302A5CF08
:104A40001092990210929802809198029091990286
:104A5000892B09F05CCE80919302811158CE809110
:104A60007F040E942B0790937A048093790420910D
:104A70007B0430917C0482179307A1F0809181041C
:104A80000E942B072091790430917A0482179307B2
:104A900049F4809185049091860401969093860450
:104AA000809385048091790490917A0490937C049A
:104AB00080937B0480918504909186049093950265
:104AC000809394020A9744F01093990200939802FD
:104AD00010939702009396020E94EE0840908F0276
:104AE000509090026090910270909202AB01BC01D4
:104AF00044195509660977098091080190910901C7
:104B0000A0910A01B0910B01B695A795979587954D
:104B1000481759076A077B0708F496CF1092970247
:104B2000109296021093990200939802D0929302E9
:104B30008BCF86E090E00E949B0964E670E080E005
:104B400090E00E94D807E0901001F0901101F092DF
:104B50007404E092730410924E0410924D0410926B
:104B6000500410924F04109252041092510410926B
:104B7000540410925304109256041092550410924B
:104B8000580410925704B0924C04A0924B04D0E009
:104B9000C0E0470182E0881A9108C815D9050CF0D9
:104BA00074C00E94CB2725E030E040E050E00E9436
:104BB0002328DB017093490460934804209709F48B
:104BC00054C0E9E5F4E030E020E02C173D0744F460
:104BD00041915191A417B507D9F02F5F3F4FF5CF01
:104BE0002C2DA430B105B1F4FE01EE0FFF1FE95AE0
:104BF000FB4F4081518141305105A1F597E0E91605
:104C0000F10459F6C430D10541F6D0E0C0E0C5CF7B
:104C100020E0E7CF119731F5FE01EE0FFF1FE95AB3
:104C2000FB4F408151814430510531F4A7E0EA1631
:104C3000F10409F0B2CFE6CFC230D1059CF0433089
:104C4000510581F4FE01EE0FFF1FEB5AFB4F40812F
:104C500051814430510531F4B7E0EB16F10409F00D
:104C60009CCFD0CF222309F498CFFE01EE0FFF1F77
:104C7000E75AFB4F718360832196FE01EE0FFF1F01
:104C8000E55BFB4F7183608388CFF701EE0FFF1F59
:104C9000E75BFB4F86E090E0918380838AEE93E0B0
:104CA0000E94E1099BE4692E94E0792ED0E0C0E0F7
:104CB000CE15DF050CF050C0D301ED91FD913D0103
:104CC000E730F105B0F4E959F94D0C94AE286E26A1
:104CD0007F26882691269A26A326A326409104049F
:104CE000509105046091060470910704CE010E9462
:104CF000B0058AEE93E00E94E1092196D9CF409158
:104D00001004509111046091120470911304EECFBD
:104D10004091140450911504609116047091170489
:104D2000E5CF40910C0450910D0460910E047091F8
:104D30000F04DCCF409108045091090460910A04EB
:104D400070910B04D3CF4091000450910104609105
:104D5000020470910304CACF809198029091990245
:104D6000892B09F048C0809146040E942B0790933C
:104D7000330480933204892BC9F542E050E050930C
:104D80009502409394021093970200939602109319
:104D900099020093980262E370E080E090E00E9444
:104DA000D8070E94EE0840908F02509090026090C9
:104DB00091027090920264197509860997094090D2
:104DC0000401509005016090060170900701641580
:104DD00075058605970508F4BFCF109297021092CB
:104DE00096021093990200939802B6CF1092950202
:104DF00010929402D0CF80919402909195028130CC
:104E0000910509F48BCC029709F08ECC6FE070E02D
:104E100081E090E00E949B0968EE73E080E090E002
:104E20000E94D80781CC019690939A0380939903AE
:104E3000DCCC80919B0390919C03019790939C0301
:104E400080939B03D2CCC9014497449738F484E003
:104E500090E09093110180931001D7CCC9018897FD
:104E6000449728F4B0921101A0921001CECCC90150
:104E7000CC97449718F486E090E0EBCF20353105CD
:104E80000CF4C3CC87E090E0E4CF80E090E0892B85
:104E900009F4FBC80E94EE06882309F4F4C80E94B6
:104EA0000000F1C880E691E090935A038093590383
:104EB0008091780390917903009711F00E94502916
:104EC0008091F3039091F4030E9450298091F003A4
:104ED0009091F10397FD03C060E00E9482078091EA
:104EE000DD039091DE030E9450298091DA039091B6
:104EF000DB0397FD03C060E00C94820708958F9256
:104F00009F92AF92BF92CF92DF92EF92FF92CF9398
:104F1000DF93EC01688179818A819B81611571053C
:104F20008105910521F464E279ED8BE597E02DE1AF
:104F300033EF41E050E00E94232849015A019B01D0
:104F4000AC01A7EAB1E40E9442286B017C01ACEEFF
:104F5000B4EFA50194010E945028C60ED71EE81E8A
:104F6000F91EF7FE06C081E0C81AD108E10880E802
:104F7000F80AC882D982EA82FB82C701B6019F770C
:104F8000DF91CF91FF90EF90DF90CF90BF90AF90E7
:104F90009F908F9008958F929F92AF92BF92CF92E1
:104FA000DF92EF92FF926091120170911301809154
:104FB000140190911501611571058105910521F488
:104FC00064E279ED8BE597E02DE133EF41E050E0CD
:104FD0000E94232849015A019B01AC01A7EAB1E4D0
:104FE0000E9442286B017C01ACEEB4EFA501940154
:104FF0000E945028C60ED71EE81EF91EF7FE06C0F6
:1050000081E0C81AD108E10880E8F80AC0921201CC
:10501000D0921301E0921401F0921501C701B6017C
:105020009F77FF90EF90DF90CF90BF90AF909F90D1
:105030008F9008956093120170931301809314016F
:10504000909315010895052E97FB1EF400940E947D
:105050003A2857FD07D00E94552807FC03D04EF48C
:105060000C943A2850954095309521953F4F4F4FDD
:105070005F4F089590958095709561957F4F8F4F04
:105080009F4F08950E947728A59F900DB49F900D83
:10509000A49F800D911D11240895B7FF0C94422800
:1050A0000E944228821B930B0895A1E21A2EAA1B8C
:1050B000BB1BFD010DC0AA1FBB1FEE1FFF1FA217C8
:1050C000B307E407F50720F0A21BB30BE40BF50BC5
:1050D000661F771F881F991F1A9469F7609570954E
:1050E000809590959B01AC01BD01CF010895A29FD1
:1050F000B001B39FC001A39F700D811D1124911DAC
:10510000B29F700D811D1124911D0895AA1BBB1B18
:1051100051E107C0AA1FBB1FA617B70710F0A61BB7
:10512000B70B881F991F5A95A9F780959095BC01D8
:10513000CD01089597FB072E16F4009407D077FD54
:1051400009D00E94862807FC05D03EF490958195F1
:105150009F4F0895709561957F4F0895EE0FFF1F43
:105160000590F491E02D09940F931F93CF93DF9353
:105170008230910510F482E090E0E091BB04F09160
:10518000BC0430E020E0B0E0A0E0309799F42115B5
:10519000310509F44AC0281B390B24303105D8F5F4
:1051A0008A819B816115710589F1FB01938382835B
:1051B000FE0111C0408151810281138148175907B6
:1051C000E0F04817590799F4109761F012960C9384
:1051D000129713961C933296CF01DF91CF911F91B6
:1051E0000F9108950093BB041093BC04F4CF2115D4
:1051F000310551F04217530738F0A901DB019A013C
:10520000BD01DF01F801C1CFEF01F9CF9093BC04DC
:105210008093BB04CDCFFE01E20FF31F81939193E6
:105220002250310939832883D7CF2091B904309196
:10523000BA04232B41F420911801309119013093C5
:10524000BA042093B9042091160130911701211559
:10525000310541F42DB73EB740911A0150911B0121
:10526000241B350BE091B904F091BA04E217F3075F
:10527000A0F42E1B3F0B2817390778F0AC014E5FC6
:105280005F4F2417350748F04E0F5F1F5093BA0445
:105290004093B904819391939FCFF0E0E0E09CCFDD
:1052A000CF93DF930097E9F0FC01329713821282CB
:1052B000A091BB04B091BC04ED0130E020E0109758
:1052C000A1F420813181820F931F2091B904309184
:1052D000BA042817390709F061C0F093BA04E093C3
:1052E000B904DF91CF910895EA01CE17DF07E8F501
:1052F0004A815B819E0141155105B1F7E901FB83AC
:10530000EA8349915991C40FD51FEC17FD0761F449
:10531000808191810296840F951FE901998388838A
:10532000828193819B838A83F0E0E0E012968D91E5
:105330009C9113970097B9F52D913C911197CD0150
:105340000296820F931F2091B9043091BA04281756
:10535000390739F6309751F51092BC041092BB040E
:10536000B093BA04A093B904BCCFD383C283408165
:105370005181840F951FC817D90761F44E5F5F4FA5
:1053800088819981480F591F518340838A819B816D
:10539000938382832115310509F0B0CFF093BC04CB
:1053A000E093BB049ECFFD01DC01C0CF13821282CB
:1053B000D7CF81E090E0F8940C94E529DC0101C09E
:1053C0006D9341505040E0F7089515E0CCE5D5E0ED
:1053D00004C0FE010E94AE282196CD35D107C9F741
:0453E000F894FFCF6F
:1053E400102700001027000010270000983A000042
:1053F4000300010000000000BD0480007EFF0600E1
:105404000100000000EF00000000E10AB4093B18AD
:1054140021063D0B530BC90A000000008106B409A4
:105424002206CE0653063106450600000000871406
:105434005A143B1821065314401431140000000080
:105444001010B4093B18CA131B0D2106B5128D1296
:10545400A9129D121D132106D60DE5178B0CD40C31
:10546400D611B9114111E2100D0A0053636F726530
:045474003A200000DA
:00000001FF
