:020000040000FA
:100000000C945D050C9485050C9485050C94662074
:100010000C9466200C9466200C9485050C94850540
:100020000C9485050C9485050C9485050C94850528
:100030000C9485050C9485050C9485050C94850518
:100040000C94C41F0C9485050C9434200C940E2041
:100050000C9485050C9485050C9485050C948505F8
:100060000C94DE200C94850500000000003E5B4FE0
:100070005B3E3E6B4F6B3E1C3E7C3E1C183C7E3C08
:10008000181C577D571C1C5E7F5E1C00183C180016
:10009000FFE7C3E7FF0018241800FFE7DBE7FF30A6
:1000A000483A060E2629792926407F050507407F14
:1000B00005253F5A3CE73C5A7F3E1C1C08081C1C87
:1000C0003E7F14227F22145F5F005F5F06097F017D
:1000D0007F006689956A606060606094A2FFA29468
:1000E00008047E040810207E201008082A1C080836
:1000F0001C2A08081E101010100C1E0C1E0C303884
:100100003E3830060E3E0E06000000000000005F84
:1001100000000007000700147F147F14242A7F2AA0
:100120001223130864623649562050000807030062
:10013000001C2241000041221C002A1C7F1C2A08AE
:10014000083E080800807030000808080808000011
:1001500060600020100804023E5149453E00427F85
:10016000400072494949462141494D331814127FD4
:100170001027454545393C4A494931412111090774
:100180003649494936464949291E000014000000F5
:1001900040340000000814224114141414140041C7
:1001A00022140802015909063E415D594E7C121184
:1001B000127C7F494949363E414141227F414141BC
:1001C0003E7F494949417F090909013E4141517337
:1001D0007F0808087F00417F41002040413F017FA8
:1001E000081422417F404040407F021C027F7F0470
:1001F00008107F3E4141413E7F090909063E4151B9
:10020000215E7F09192946264949493203017F01A8
:10021000033F4040403F1F2040201F3F4038403FA9
:10022000631408146303047804036159494D4300BF
:100230007F4141410204081020004141417F0402F6
:10024000010204404040404000030708002054548D
:1002500078407F284444383844444428384444286B
:100260007F385454541800087E090218A4A49C78BE
:100270007F0804047800447D40002040403D007F1A
:100280001028440000417F40007C047804787C08FA
:100290000404783844444438FC18242418182424CE
:1002A00018FC7C08040408485454542404043F44B3
:1002B000243C4040207C1C2040201C3C4030403CE2
:1002C00044281028444C9090907C4464544C440042
:1002D00008364100000077000000413608000201A6
:1002E0000204023C2623263C1EA1A161123A404092
:1002F000207A38545455592155557941225454780F
:1003000042215554784020545579400C1E527212A7
:100310003955555559395454545939555454580030
:1003200000457C410002457D420001457C407D1234
:1003300011127DF0282528F07C5455450020545496
:100340007C547C0A097F4932494949323A44444441
:100350003A324A4848303A4141217A3A424020787C
:10036000009DA0A07D3D4242423D3D4040403D3C7D
:1003700024FF2424487E4943662B2FFC2F2BFF09A2
:1003800029F620C0887E0903205454794100004496
:100390007D413048484A32384040227A007A0A0A81
:1003A000727D0D19317D2629292F282629292926F4
:1003B00030484D4020380808080808080808382F39
:1003C00010C8ACBA2F102834FA00007B00000814C3
:1003D0002A142222142A14085500550055AA55AA99
:1003E00055AAFF55FF55FF000000FF00101010FF39
:1003F00000141414FF001010FF00FF1010F010F094
:10040000141414FC001414F700FF0000FF00FF1484
:1004100014F404FC141417101F10101F101F1414D0
:10042000141F00101010F0000000001F101010101A
:100430001F10101010F010000000FF10101010100E
:1004400010101010FF10000000FF140000FF00FF4C
:1004500000001F10170000FC04F4141417101714E8
:1004600014F404F40000FF00F7141414141414140A
:10047000F700F7141414171410101F101F1414147D
:10048000F4141010F010F000001F101F0000001FE7
:1004900014000000FC140000F010F01010FF10FF1A
:1004A000141414FF141010101F00000000F010FFAF
:1004B000FFFFFFFFF0F0F0F0F0FFFFFF0000000093
:1004C00000FFFF0F0F0F0F0F3844443844FC4A4A17
:1004D0004A347E02020606027E027E0263554941CC
:1004E000633844443C04407E201E2006027E020203
:1004F00099A5E7A5991C2A492A1C4C7201724C3017
:100500004A4D4D303048784830BC625A463D3E49ED
:100510004949007E0101017E2A2A2A2A2A44445F91
:10052000444440514A444040444A51400000FF0185
:1005300003E080FF000008086B6B08361236243693
:10054000060F090F060000181800000010100030F8
:1005500040FF0101001F01011E00191D1712003C80
:100560003C3C3C0000000000000103070F1F3F7FE0
:100570000080C0E0F0F8FCFEDB40A4A62EAF200017
:10058000A1C8D300408DAED580A800006000000057
:100590000000000000000000000000E0000000007B
:1005A00000000000000000000001E000000000006A
:1005B000000000000000000001F00000000000004A
:1005C0000000000000000003F00000000000000038
:1005D00000000000000007F0000000000000000024
:1005E000000000000007F80000000000000000000C
:1005F000000000000FF800000003C0007E000001B2
:10060000E0007F0FF800000003C000FE000001E0E2
:1006100000FFEFF800000003C000FE000001E00052
:10062000FFFFF800000003C000F00000000F007F93
:10063000FE7FC0000003C000F00000000F003FFE7E
:100640007FF83FF1FBCFFCFEF3BC3DEFE01FFE7FE8
:10065000FF7FFBFFDFFEFEFFBC3DEFE01FC6FFFF9D
:100660007FFBFFDFFEFEFFBC3DEFE00FE3C7FE7840
:100670007BC3DE1EF0FFBC3DEF0007FF87FC787BED
:10068000C3DE1EF0F83C3DEF0001FFFFF0007BC32E
:10069000C01EF0F03C3DEF0001F37FE03FFBC3CF15
:1006A000FEF0F03C3DEF0003E33F807FFBC3DFFE45
:1006B000F0F03C3DEF0007E73C00787BC3DE1EF026
:1006C000F03C3DEF0007FFBE00787BC3DE1EF0F07C
:1006D0003C3DEF0007FFFE00787BC3DE1EF0F03CE0
:1006E0003DEF000FFFFE007FFBFFDFFEF0F03FFD60
:1006F000EFE00FFFFF007FFBFFDFFEF0F03FFDEFBD
:10070000E00FF9FF003E79F9CF9EF0F01F3DE7E0E2
:100710001FF1FF0000000000000000000000001FAB
:1007200080FF007FFFFFFFFFFFFFFFFFFFE01C00D8
:100730007F007FFFFFFFFEB46D888D18E000001F73
:10074000007FFFFFFFFE95AD7DB577E000000F0055
:100750007FFFFFFFFEA5AD9D8D19E0000006007F25
:10076000FFFFFFFEB5ADEDB57EE00000000000012B
:100770008000000000000000000003800000000076
:10078000000000000007C0000000000000000000A2
:1007900007C00000000000000000000FC0000000C3
:1007A0000000000000001FE000000000000000004A
:1007B000001FE00000000000000000003FE000001B
:1007C000000000000000003FF000000000000000FA
:1007D00000007FF0000000000000001FF87FF00024
:1007E0000000000000003FFE7FF00000000000005D
:1007F000003FFF7FF0000000000000001FFFFBE053
:10080000000000000000000FFFF9FFC00000000022
:1008100000000FFFF9FFF800000000000007FFF1E3
:10082000FFFF00000000000003FC73FFFF800000DA
:1008300000000001FE3FFFFF80000000000000FFFD
:100840001E0FFF000000000000007FFE1FFC0000E4
:1008500000000000003FFFFFF80000000000000063
:100860000FDFFFE0000000000000001F19FFC000C4
:100870000000000000003F3CFF00000000000000FE
:10088000007E7CF800000000000000007FFE7C007D
:1008900000000000000000FFFFFC0000000000005E
:1008A0000000FFFFFE0000000000000000FFFFFE50
:1008B0000000000000000001FFEFFE00000000004B
:1008C000000001FFCFFE0000000000000003FF0752
:1008D000FE0000000000000003FC07FE0000000016
:1008E00000000003F003FE00000000000000018093
:1008F00000FE000000000000000000007E0000007C
:10090000000000000000003E0000000000000000A9
:1009100000000C000000000000078000FC00000345
:10092000C0000000078001FC000003C000000007B9
:100930008001FC000003C0000000078001E000000F
:10094000001E000000078001E00000001E007FE3A1
:10095000F79FF9FDE7787BDFC0FFF7FFBFFDFDFFE5
:10096000787BDFC0FFF7FFBFFDFDFF787BDFC0F0C6
:10097000F787BC3DE1FF787BDE00F0F787BC3DE107
:10098000F0787BDE0000F787803DE1E0787BDE00D9
:100990007FF7879FFDE1E0787BDE00FFF787BFFDF3
:1009A000E1E0787BDE00F0F787BC3DE1E0787BDEBC
:1009B00000F0F787BC3DE1E0787BDE00F0F787BC14
:1009C0003DE1E0787BDE00FFF7FFBFFDE1E07FFB6C
:1009D000DFC0FFF7FFBFFDE1E07FFBDFC07CF3F38B
:1009E0009F3DE1E03E7BCFC0000000000000000022
:1009F000000000FFFFFFFFFFFFFFFFFFFFC0FFFF43
:100A0000FFFFFD68DB111A31C0FFFFFFFFFD2B5A0E
:100A1000FB6AEFC0FFFFFFFFFD4B5B3B1A33C0FFDC
:100A2000FFFFFFFD6B5BDB6AFDC04D5033506C6117
:100A3000796572206F6E6C696E652E00496E6974FF
:100A400069616C697A696E67204D5033506C6179C9
:100A50006572202E2E2E0000000000240027002AA0
:100A60000000000000250028002B000000000023EB
:100A70000026002900040404040404040402020201
:100A800002020203030303030301020408102040CF
:100A90008001020408102001020408102000000058
:100AA000080002010000030407000000000000002D
:100AB000002200FF21006C228A2A11241FBECFEFE2
:100AC000D8E0DEBFCDBF11E0A0E0B1E0ECE2FAE596
:100AD00002C005900D92AC37B107D9F724E0ACE71E
:100AE000B1E001C01D92A638B207E1F715E0CCE5F0
:100AF000D5E004C02197FE010E94D22BCB35D1074F
:100B0000C9F70E947B240C94092D0C94000091E0FD
:100B1000909393028093920210929102109290020D
:100B20000895CF93DF93EC016885633301F1298544
:100B30003A856150B9F070E08FEF92E30E94BE2BCE
:100B4000F9014C815D81CF01821B930B84179507BE
:100B500060F44081469FC001479F900D112490830F
:100B60003196EFCF70E060E0EBCF83E38887DF91D1
:100B7000CF9108950895FC01538D448D252F30E0C9
:100B8000842F90E0821B930B541710F0CF9608959A
:100B900001970895FC01918D828D981761F0A28DC7
:100BA000AE0FBF2FB11D5D968C91928D9F5F9F738D
:100BB000928F90E008958FEF9FEF0895FC01918D43
:100BC000828D981731F0828DE80FF11D858D90E0B0
:100BD00008958FEF9FEF0895FC01918D228D892F4D
:100BE00090E0805C9F4F821B91098F739927089535
:100BF000FC01A48DA80FB92FB11DA35ABF4F2C9192
:100C0000848D90E001968F739927848FA689B78988
:100C10002C93A089B1898C91837080648C93938D7F
:100C2000848D981306C00288F389E02D80818F7D22
:100C300080830895EF92FF920F931F93CF93DF93DA
:100C4000EC0181E0888F9B8D8C8D98131AC0E88908
:100C5000F989808185FF15C09FB7F894EE89FF89D7
:100C60006083E889F98980818370806480839FBF75
:100C700081E090E0DF91CF911F910F91FF90EF9075
:100C80000895F62E0B8D10E00F5F1F4F0F73112785
:100C9000E02E8C8D8E110CC00FB607FCFACFE889C0
:100CA000F989808185FFF5CFCE010E94F805F1CF4B
:100CB000EB8DEC0FFD2FF11DE35AFF4FF0829FB734
:100CC000F8940B8FEA89FB8980818062CFCFCF9324
:100CD000DF93EC01888D8823B9F0AA89BB89E88964
:100CE000F9898C9185FD03C0808186FD0DC00FB60A
:100CF00007FCF7CF8C9185FFF2CF808185FFEDCF88
:100D0000CE010E94F805E9CFDF91CF91089584E9E3
:100D100092E00E94EC0521E0892B09F420E0822F6B
:100D2000089580E090E0892B29F00E9487068111C8
:100D30000C9400000895833081F028F4813099F0FC
:100D40008230A9F008958730A9F08830C9F0843046
:100D5000B1F4809180008F7D03C0809180008F77F7
:100D600080938000089584B58F7784BD089584B5FD
:100D70008F7DFBCF8091B0008F778093B000089576
:100D80008091B0008F7DF9CFCF93DF93282F30E093
:100D9000F901E356F54F8491F901E757F54FD491E6
:100DA000F901EB58F54FC491CC23A1F081110E94B9
:100DB0009B06EC2FF0E0EE0FFF1FE559F54FA591D4
:100DC000B491EC91ED2381E090E009F480E0DF91B3
:100DD000CF91089580E090E0FACF1F93CF93DF93F7
:100DE000282F30E0F901E356F54F8491F901E757D8
:100DF000F54FD491F901EB58F54FC491CC23A9F0EC
:100E0000162F81110E949B06EC2FF0E0EE0FFF1FC2
:100E1000EF59F54FA591B4918FB7F894EC9111115A
:100E200008C0D095DE23DC938FBFDF91CF911F9157
:100E30000895DE2BF8CFCF93DF9390E0FC01E757C6
:100E4000F54F24918B58954FFC0184918823D1F064
:100E500090E0880F991FFC01E95AF54FA591B491D4
:100E6000FC01EF59F54FC591D49161110EC09FB7A8
:100E7000F8948C91E22FE0958E238C932881E223C5
:100E8000E8839FBFDF91CF9108958FB7F894EC91DD
:100E9000E22BEC938FBFF6CF8E3008F08E50877028
:100EA000806480937C0080917A00806480937A00D3
:100EB00080917A0086FDFCCF809178009091790036
:100EC00008953FB7F89480913E0290913F02A0911F
:100ED0004002B091410226B5A89B05C02F3F19F0F2
:100EE0000196A11DB11D3FBFBA2FA92F982F8827AA
:100EF000BC01CD01620F711D811D911D42E0660F85
:100F0000771F881F991F4A95D1F708958F929F9256
:100F1000AF92BF92CF92DF92EF92FF926B017C0172
:100F20000E9461074B015C01C114D104E104F1048A
:100F3000B9F00E946107681979098A099B09683E1E
:100F400073408105910580F321E0C21AD108E108C0
:100F5000F10888EE880E83E0981EA11CB11CE4CF36
:100F6000FF90EF90DF90CF90BF90AF909F908F90C9
:100F7000089580915C0490915D04DC01ED91FC91F9
:100F80000084F185E02D0995892B09F4A6C060E065
:100F900070E0CB010E94860720917A0480915C0466
:100FA00090915D04DC01ED91FC910284F385E02DCC
:100FB00021110BC00995809366048E37D1F680917C
:100FC0007A048F5F80937A04D4CF099590917A0444
:100FD000E92FF0E0EA5AFB4F808B9230A9F099306C
:100FE000C9F0913099F48F3F89F010927A0481E032
:100FF00080937C0410927F0410927E04809380047E
:101000001092810480E00895863079F79F5F909375
:101010007A04AFCF8F3E49F720916804809167042E
:10102000280F3327331FE0916904C9018E0F911DEA
:1010300020916A04280F392F311D40916B0450E034
:10104000240F351F80916C0490E060916D0470E076
:10105000762F6627F0916E046F0F711D280F391FD0
:101060003195219531096217730709F0BECF1092AF
:101070007A04E13419F4109281042FC0E0937D04C6
:10108000542F4427840F951F90937F0480937E04F0
:10109000EA53E63108F046C0F0E0EF5AF74F0C94FF
:1010A000D22B7E08860867086708900870088E08AB
:1010B000920890089008900890089008900890086E
:1010C000900892089008900890089008900885E091
:1010D00080937C0481E08093800480918004089553
:1010E00080FF02C089E0F4CF81FF02C084E0F0CF2E
:1010F00083709927892B89F38AE0EACF80FF02C0A9
:1011000087E0E6CF81FFE9CF82E0E2CF80FF02C037
:1011100088E0DECF81FFE1CF83E0DACF86E0D8CF71
:101120008BE0D6CF81E080937C0410927F041092F4
:101130007E04809380049FCF2FB7F89460913A0289
:1011400070913B0280913C0290913D022FBF089527
:101150008F929F92AF92BF92CF92DF92EF92FF92C7
:10116000CF9380937304272F30E0709375046093BE
:1011700076044091720490917104490F5527551FD0
:10118000840F952F911D40917404840F911D820F3F
:10119000931F680F792F711D719561957109709377
:1011A0007704609378044423C1F1C1E08091810405
:1011B000882399F160E070E0CB010E9486070E94CD
:1011C0009C086B017C018090620490906304A09065
:1011D0006404B09065040E94B9078111E7CF0E94B2
:1011E0009C086C197D098E099F0986169706A8062A
:1011F000B90668F410927A0410927C0410927F046D
:1012000010927E04C093800410928104CFCF60E0DE
:1012100070E0CB010E948607DECF80915C04909144
:101220005D04DC01ED91FC910280F381E02D4AE048
:1012300050E060E774E009950E949C0860935E04AA
:1012400070935F04809360049093610480917404B0
:1012500091E0811101C090E09093810481110FC051
:101260006AE070E080E090E0CF91FF90EF90DF9037
:10127000CF90BF90AF909F908F900C948607CF91A6
:10128000FF90EF90DF90CF90BF90AF909F908F90A6
:101290000895CF93DF93EC0186E00E94A808BE0179
:1012A00083E00E94A8080E94B9078823E1F3109206
:1012B000800480917C048530B1F7DF91CF9108954F
:1012C00008950895AF92BF92CF92DF92EF92FF926E
:1012D0000F931F93CF93DF936C017B018B01040F5E
:1012E000151FEB015E01AE18BF08C017D10759F0FA
:1012F0006991D601ED91FC910190F081E02DC6013C
:101300000995892B79F7C501DF91CF911F910F9135
:10131000FF90EF90DF90CF90BF90AF9008958F92A5
:101320009F92AF92BF92CF92DF92EF92FF921F9364
:10133000CF93DF93FC018281938168177907A8F529
:101340004A01AA24BB24C82DC32ED42EE52EFF2487
:101350001C2DD22F8085882361F0889E40011124A6
:10136000C92D8C9D600111241D2D829FD001112457
:10137000DB2FA685E184F2849385A91322C0CB01DB
:10138000880F991F680F791F6E0D7F1DA385A60F0B
:10139000B72FB11DCC93A485A60FB72FB11D1C93F9
:1013A0008585680F711DFB01D083DF91CF911F915F
:1013B000FF90EF90DF90CF90BF90AF909F908F9075
:1013C0000895660F771F660F771F6E0D7F1D252FFF
:1013D000332744275527882349F090E0829F7001E6
:1013E000839FF00C929FF00C11242F2DA60FB72F86
:1013F000B11D2C93CBCFCF92DF92EF92FF920F9340
:101400001F93CF93DF93CDB7DEB729970FB6F8942C
:10141000DEBF0FBECDBF8C01DC0119968D919C9172
:10142000892B09F473C00E946107F801C784D08832
:10143000E188F2886C157D058E059F0520F467878D
:10144000708B818B928BF801C784D088E188F288F9
:101450006C197D098E099F096C32714081059105D7
:1014600010F3F894D80114968D919C9115979A8356
:1014700089831996ED91FC917F01BFEFEB1AFB0A6E
:1014800080818987F80190810388F489E02DD80153
:1014900055968C91992309F448C09081982B988790
:1014A0009081809589238F838F818C8388E08B83C3
:1014B00058856F8149853B812C8189819A81D7012B
:1014C000508347FD252F3A952083262F39F0441F5E
:1014D00000C000006083000000C0F2CF38E04D91F2
:1014E00060830000019761F7D8015496FC93EE9356
:1014F000539749873B832C839A83898378940E94EE
:101500006107F8016787708B818B928B29960FB6E4
:10151000F894DEBF0FBECDBFDF91CF911F910F9129
:10152000FF90EF90DF90CF9008959081982B98874F
:101530009081809589238F838F818E8388E08D832E
:1015400058856F8149853D812E8189819A81D70196
:10155000508347FD252F00C000C0208300C000C07D
:1015600000C000C000C060830000262F3A9541F003
:10157000441F000000C000C000C000C000C0E8CF91
:1015800038E04D9100C0608300C0019709F7D80191
:101590005496FC93EE93539749873D832E83ACCFAB
:1015A0008091DD030E944C079093E6038093E5034E
:1015B0009C01205931402D373105A8F54091F503A4
:1015C0005091F603452B79F5609132047091330404
:1015D000FB01EE0FFF1FEC5DFB4F1182108220918B
:1015E000C5033091C6034091C7035091C80385E9F4
:1015F00093E00E948F0985E993E00E94FB098091A6
:101600003204909133040196909333048093320412
:101610008091F5039091F60301969093F6038093E1
:10162000F50381E00895AC01485C51094639510544
:1016300088F48091F5039091F603019729F22D37F4
:10164000310530F48091F5039091F603029759F03B
:1016500080E008958F3F934091F78091F50390913A
:10166000F603019761F76091320470913304615081
:10167000710970933304609332048091F503909163
:10168000F60301979093F6038093F503FB01EE0FA9
:10169000FF1FEC5DFB4F8FEF9FEF918380832091C5
:1016A000D9033091DA034091DB035091DC0385E9E3
:1016B00093E00E948F0985E993E00E94FB09B1CF76
:1016C0008091DF030E944C079093E8038093E70327
:1016D0009C01205931402D373105B8F54091F70371
:1016E0005091F803452B89F56091320470913304D1
:1016F000FB01EE0FFF1FEC5DFB4F81E090E091835B
:1017000080832091D1033091D2034091D303509133
:10171000D40385E993E00E948F0985E993E00E9454
:10172000FB09809132049091330401969093330425
:10173000809332048091F7039091F803019690937F
:10174000F8038093F70381E00895AC01485C5109E8
:101750004639510588F48091F7039091F803813060
:10176000910599F46091320470913304FB01EE0FFE
:10177000FF1FEC5DFB4FC3CF8F3F934031F480914F
:10178000F7039091F803019749F02D37310598F54B
:101790008091F7039091F803029769F56091320404
:1017A0007091330461507109709333046093320473
:1017B0008091F7039091F80301979093F803809339
:1017C000F703FB01EE0FFF1FEC5DFB4F8FEF9FEF69
:1017D000918380832091D9033091DA034091DB0318
:1017E0005091DC0385E993E00E948F0985E993E03D
:1017F0000E94FB09A8CF80E008958091E1030E9438
:101800004C079093EA038093E9039C0120593140EF
:101810002D373105B8F54091F9035091FA03452B66
:1018200089F56091320470913304FB01EE0FFF1FC4
:10183000EC5DFB4F82E090E0918380832091D503A3
:101840003091D6034091D7035091D80385E993E0B6
:101850000E948F0985E993E00E94FB098091320480
:1018600090913304019690933304809332048091D5
:10187000F9039091FA0301969093FA038093F90388
:1018800081E00895AC01485C51094639510588F45E
:101890008091F9039091FA03019719F22D373105E0
:1018A00030F48091F9039091FA03029759F080E0A7
:1018B00008958F3F934091F78091F9039091FA0337
:1018C000019761F76091320470913304615071099E
:1018D00070933304609332048091F9039091FA037A
:1018E00001979093FA038093F903FB01EE0FFF1F1A
:1018F000EC5DFB4F8FEF9FEF918380832091D903A5
:101900003091DA034091DB035091DC0385E993E0E9
:101910000E948F0985E993E00E94FB09B1CF809175
:10192000E3030E944C079093EC038093EB039C012C
:10193000205931402D373105B8F54091FB035091C6
:10194000FC03452B89F56091320470913304FB014F
:10195000EE0FFF1FEC5DFB4F83E090E091838083EF
:101960002091CD033091CE034091CF035091D0030D
:1019700085E993E00E948F0985E993E00E94FB09C5
:1019800080913204909133040196909333048093B4
:1019900032048091FB039091FC0301969093FC0329
:1019A0008093FB0381E00895AC01485C51094639FE
:1019B000510588F48091FB039091FC03019719F283
:1019C0002D37310530F48091FB039091FC03029791
:1019D00059F080E008958F3F934091F78091FB0389
:1019E0009091FC03019761F7609132047091330488
:1019F0006150710970933304609332048091FB034A
:101A00009091FC0301979093FC038093FB03FB01EF
:101A1000EE0FFF1FEC5DFB4F8FEF9FEF91838083F5
:101A20002091D9033091DA034091DB035091DC031C
:101A300085E993E00E948F0985E993E00E94FB0904
:101A4000B1CFCF93DF93809105040E94C406EC01CF
:101A50009093F0038093EF030097E1F58091FF03EB
:101A600090910004892B89F56091320470913304C0
:101A7000FB01EE0FFF1FEC5DFB4F85E090E09183D3
:101A800080832091C1033091C2034091C3035091E0
:101A9000C40385E993E00E948F0985E993E00E94E1
:101AA000FB098091320490913304019690933304A2
:101AB000809332048091FF039091000401969093EB
:101AC00000048093FF03C1E0D0E08C2F8170DF9190
:101AD000CF910895019779F58091FF0390910004CB
:101AE000009749F16091320470913304615071099B
:101AF00070933304609332040197909300048093B1
:101B0000FF03FB01EE0FFF1FEC5DFB4F8FEF9FEF1D
:101B1000918380832091D9033091DA034091DB03D4
:101B20005091DC0385E993E00E948F0985E993E0F9
:101B30000E94FB09CACFC0E0C8CFCF93DF9380914A
:101B400003040E94C406EC019093F2038093F10316
:101B50000097E1F58091010490910204892B89F5A9
:101B60006091320470913304FB01EE0FFF1FEC5DB6
:101B7000FB4F86E090E0918380832091C1033091F8
:101B8000C2034091C3035091C40385E993E00E94CE
:101B90008F0985E993E00E94FB09809132049091BE
:101BA00033040196909333048093320480910104AE
:101BB0009091020401969093020480930104C1E085
:101BC000D0E08C2F8170DF91CF910895019779F546
:101BD0008091010490910204009749F160913204D0
:101BE000709133046150710970933304609332042F
:101BF00001979093020480930104FB01EE0FFF1FF5
:101C0000EC5DFB4F8FEF9FEF918380832091D90391
:101C10003091DA034091DB035091DC0385E993E0D6
:101C20000E948F0985E993E00E94FB09CACFC0E0BA
:101C3000C8CFCF93DF93EC018E819F8197FD07C0C2
:101C400061E00E941B0760E08E810E94ED0681E04A
:101C50008983DF91CF910895209127023091280246
:101C60002817390771F49091250280912602981760
:101C700041F0E0912502F0E0E052FE4F808190E0DB
:101C800008958FEF9FEF0895EF92FF920F931F93A8
:101C9000CF93DF93DC015C96ED90FC905D97E114AF
:101CA000F10479F481E090E013969C938E9312975F
:101CB00090E080E0DF91CF911F910F91FF90EF9026
:101CC00008955196ED91FC91529750968C915097B2
:101CD000982F90950FB75E962C915E97122F1270E9
:101CE00021FD6095F8942081112319F1282B208380
:101CF000E7012197F1F728E0462F50E0308160FF9F
:101D00001AC0382B3083E7012197F1F7BA01759596
:101D10006795215089F7112381F080818923808381
:101D20000FBF5C968D919C910197F1F781E090E057
:101D3000C1CF2923DCCF3923E5CF9081892BEFCF89
:101D400020912702309128022817390761F48091E9
:101D500026022091250290E0805C9F4F821B910912
:101D60008F739927089590E080E0089520912702CD
:101D70003091280228173907B9F4909125028091F3
:101D80002602981789F0E0912502F0E0E052FE4F1C
:101D900080812091250230E02F5F3F4F2F73332742
:101DA0002093250290E008958FEF9FEF0895EF9222
:101DB000FF920F931F93CF93DF93EC01EC80FD8094
:101DC0006E157F050CF070C057FF04C0240F351F3F
:101DD00050E040E08E819F81FA01E20FF31F8E17E1
:101DE0009F071CF49C01241B350B121613060CF0E4
:101DF0005BC0922F842F8695869586958E9DD00107
:101E00008F9DB00D11246A0F7B1FAF8DB8A1A60F57
:101E1000B71F477049F188E0841B482F682F70E096
:101E2000FB01E059FA4FE491281708F063C0621BE8
:101E300071092FEF30E002C0359527956A95E2F7DA
:101E4000E2230130110539F0B0F10230110561F5DE
:101E50008C91E82702C08C91E82BEC93941720F129
:101E60002C813D81A20FB31FE92FE41BE83078F0ED
:101E70000230110521F58E2F9C9190959C932C8119
:101E80003D81A20FB31F88508830B0F7E770EE2372
:101E900059F0F0E0E859FA4FE49101301105F9F0FA
:101EA00010F10230110519F1DF91CF911F910F91BF
:101EB000FF90EF900895E0958C91E823CECF81E0DC
:101EC0000115110509F480E081959E2F8C932C81DA
:101ED0003D81A20FB31F98509830C0F7D7CF8C9197
:101EE000E82BEC93E1CFE0958C91E823FACF8C912D
:101EF000E827F7CF0130110509F4ADCFE0F2023049
:101F0000110509F4A5CFAE0DBF1DAECF0F931F93E2
:101F1000CF93DF9377FF04C0260F371F70E060E098
:101F2000DC011496CD91DC91FB01E20FF31FCE177B
:101F3000DF071CF49E01261B370B121613064CF507
:101F4000FA0157FD3796A3E0F595E795AA95E1F7D5
:101F5000EC9FD001ED9FB00DFC9FB00D11246A0FD6
:101F60007B1FDC015F96ED91FC91E60FF71F477038
:101F7000552781E090E001C0880F4A95EAF7482F85
:101F80000130110559F0A8F02E0F3F1F0230110546
:101F9000E1F0DF91CF911F910F9108952E0F3F1F18
:101FA000E217F307B1F38191DF011197842B8C9332
:101FB000F7CF80952E0F3F1FE217F30751F3919152
:101FC000DF01119798239C93F7CFE217F30709F3EA
:101FD0008191DF01119784278C93F7CF0F931F9383
:101FE000FA01DC0156964C9156974230E9F04330A5
:101FF000A1F1413061F514964D915C91DA01AE1B6F
:10200000BF0BFD01E21BF30B77FD0BC0DC01169645
:102010004D915C916417750724F4AB01BF010E94D8
:10202000860F1F910F91089514964D915C91DA01DE
:10203000A61BB70BBD0161507109DC0116964D91CD
:102040005C91DA01AE1BBF0BFD01E21BF30B77FDC8
:10205000E8CFAF010E94D70EE4CF16964D915C9168
:10206000DA01A61BB70BBD0161507109CDCF0F93EB
:102070001F93FA01DC0156964C9156974230A9F015
:10208000433091F1413019F514964D915C91DA018C
:10209000AE1BBF0BFD013197F7FD04C0AB01BF01C3
:1020A0000E94D70E1F910F91089514964D915C9147
:1020B000DA01A61BB70BBD01DC0116964D915C91B0
:1020C000DA01AE1BBF0BFD013197621B730BF7FDED
:1020D000E9CFDC0116964D915C91E417F50714F7F2
:1020E000AF010E94860FDECF16964D915C91DA010A
:1020F000A61BB70BBD01621B730BCECFFC0177FD96
:1021000064C080859185681779070CF05EC057FD23
:102110005CC082859385481759070CF056C08689A4
:102120008230B1F0833029F1813041F4848195818E
:10213000841B950BAB01BC01615071092130310545
:1021400009F108F443C02230310509F463C0089551
:1021500084819581DC01A61BB70BBD01615071091B
:1021600086819781DC01A41BB50BAD01415051095B
:10217000E5CF86819781861B970BBA01AC01415050
:102180005109DCCFCA0157FD0796A3E095958795C5
:10219000AA95E1F7A481B5818A9F90018B9F300DAC
:1021A0009A9F300D1124620F731F078CF0A1E02D50
:1021B000E60FF71F4770552721E030E001C0220FDE
:1021C0004A95EAF78081822B80830895CA0157FDE2
:1021D000079633E0959587953A95E1F7A481B58107
:1021E0008A9F90018B9F300D9A9F300D1124620FB2
:1021F000731F078CF0A1E02DE60FF71F47705527DE
:1022000081E090E001C0880F4A95EAF780959081BF
:102210008923DACFCA0157FD079623E09595879564
:102220002A95E1F7A481B5818A9F90018B9F300D9B
:102230009A9F300D1124620F731F078CF0A1E02DBF
:10224000E60FF71F4770552721E030E001C0220F4D
:102250004A95EAF780818227B7CF08958EBD0000A6
:102260000DB407FEFDCF8EB508958CBD9DBD0895BC
:102270000895FC016370668B848195812681378186
:10228000613039F0633029F0918780873387228766
:102290000895318720879387828708952F923F92F0
:1022A0004F925F926F927F928F929F92AF92BF9266
:1022B000CF92DF92EF92FF920F931F93CF93DF9312
:1022C000CDB7DEB76A970FB6F894DEBF0FBECDBFAD
:1022D0009A8F898F7A8369834A01D22E18870F8358
:1022E0003701BC2CDC0159962D913C915A97211550
:1022F000310509F015C118968D919C9119976817B1
:1023000079070CF0D7C11A968D919C9148175907FF
:102310000CF0D0C14C2C512CB6E0CB9E600D711D41
:1023200011247C876B87161617060CF0C3C1EA2DA3
:10233000F0E0FA87E98793E0EE0FFF1F9A95E1F747
:10234000F88BEF87CF01840F951F181619060CF034
:10235000B1C1A98DBA8D58968C91811104C0BFEA84
:10236000BD1508F4D394A98DBA8DED91FC91119708
:102370000284F385E02DCD010995B5E0DB9EC00117
:102380001124E981FA81FC83EB83312C212C9C01FF
:1023900028593F4F388F2F8B4A2D50E05E8B4D8B45
:1023A000EF89F88DE20DF31D44919E828D82D12C30
:1023B000C12C69817A81620D731D7A8B698B842FA0
:1023C00090E09C8B8B8BE98DFA8DA081B18140FFD1
:1023D00082C0F1E0BF126FC0AF126DC01C96ED91CC
:1023E000FC912F813885A4014C0D5D1D69897A8986
:1023F000898D9A8D0995EB89FC89F595E7954E2F86
:102400005FEFC51AD50A6D817E818D899E89680F1F
:10241000791F7E836D8398E0C916D10481F6AFEFF2
:102420002A1A3A0AEB81FC81E40DF51DFC83EB834B
:10243000F5E02F16310409F0B3CF2F81388526152A
:102440003705B9F0A98DBA8DED91FC91B1E0BB12C1
:1024500057C0AB1255C069817A816B5F7F4F00888E
:10246000F189E02D830128E030E0A401898D9A8D67
:102470000995A98DBA8DED91FC9111970688F78980
:10248000E02DCD016A960FB6F894DEBF0FBECDBF2A
:10249000DF91CF911F910F91FF90EF90DF90CF9040
:1024A000BF90AF909F908F907F906F905F904F9074
:1024B0003F902F9009941E96ED91FC91EF80F88447
:1024C00009851A8592014D815E816B817C81898DA0
:1024D0009A8D099590CF2F8138852615370509F4F7
:1024E0008ACF31E0B31207C0A31205C01C96ED914C
:1024F000FC91930178CF1E96ED91FC917301E0CF92
:102500006B857C85641975090684F785E02D730158
:102510000F8518899201A401898D9A8D0995A9CFFB
:10252000F90134969491329745915491D91AB7E0B4
:10253000DB9E400D511D1124F901259134913C8BF6
:102540002B8BFA0125903490FA01329674903196D3
:102550003491398B329664903196449041E04C1519
:1025600018F04A1508F07FC0662D062C000C770B7A
:102570007C836B83842D042C000C990B9E838D83AC
:10258000A98DBA8DED91FC9111970284F385E02D10
:10259000CD010995512CD12CC12CEA2DF0E0FA8700
:1025A000E9872B2D30E03C872B87A401440D511D7A
:1025B00047FC5A95588F4F8B69817A81660D711D42
:1025C00067FC7A957E876D877989C71608F051CFA9
:1025D0002C2D30E04D815E81420F531FA985BA85B5
:1025E0004A9FC0014B9F900D5A9F900D1124FC01F2
:1025F000E80DF91DF88BEF87852D612C4F89588DDB
:10260000420F531F5E8B4D8B671408F050C044245B
:102610004394480E877041F4C1010196EB89FC890F
:10262000E20DF31DD4901C01D7FE19C0A98DBA8DFF
:10263000ED91FC91662D70E0B1E0BB1219C0AB12B8
:1026400017C02D853E85620F731F0484F585E02D2C
:102650002F8138854D895E89898D9A8D0995DD0C8C
:102660006394842DD1CF1E821D821C821B8288CF51
:102670004B815C81640F751FAB85BC856A9FC0016F
:102680006B9F900D7A9F900D112469817A81680F5C
:10269000791F0684F785E02DEF80F88409851A8577
:1026A0009D014F855889898D9A8D0995D8CF570CF2
:1026B000C3948ACF6A960FB6F894DEBF0FBECDBF23
:1026C000DF91CF911F910F91FF90EF90DF90CF900E
:1026D000BF90AF909F908F907F906F905F904F9042
:1026E0003F902F9008958F929F92AF92CF92EF924A
:1026F000FF920F931F93CF93DF93EC01262F898DC9
:102700009A8D009709F051C06A30D1F41D861C865D
:102710008D8948E0849F900111248E859F85820FCA
:10272000931F9F878E8781E090E0DF91CF911F916B
:102730000F91FF90EF90CF90AF909F908F90089562
:102740006D3089F3CC88AD888F898823C1F08C8562
:102750009D8536E0C39E800D911D112448855985C5
:102760004817590764F44E855F851D861C8638E03E
:10277000A39EC0011124840F951F9F878E87EA882E
:10278000FB88088919894E855F856C857D85CE011A
:102790000E944E112C898C859D8546E0249F800DDA
:1027A000911D11249D878C87BECF6A3069F41D86E8
:1027B0001C86FC013896E4912D898E859F85E29FC9
:1027C000800D911D1124ADCF6D3009F4ACCFFC010B
:1027D00034963491631708F4A6CF3296E491E61745
:1027E00008F4A1CFFC01329685909490462F431BAC
:1027F000342F47E0349F800C911C1124F401329651
:1028000034913196E4913323A9F1EE2399F1CC88E8
:10281000F4013596E491AD884F89442301F10E2EE1
:10282000000CFF0BE30FF11DCE9EA001CF9E500DBB
:1028300011246C857D85460F571F6885798564173F
:1028400075076CF44E855F851D861C86FC013896E5
:10285000E491AE9E400D511D11245F874E87EA889A
:10286000FB88088919894E855F856C857D85CE0139
:102870000E944E11F4013496E4912C898C859D853B
:10288000E29F800D911D11248DCF6F927F928F92C8
:102890009F92AF92BF92CF92DF92EF92FF920F93EF
:1028A0001F93CF93DF93EC016B015A01390148016B
:1028B000E881F9810284F385E02D0995E881F981A9
:1028C0000288F389E02D87019301A501B601CE01AD
:1028D0000995A501480D591D41505109E881F9811B
:1028E0000288F389E02D9301B601CE010995E881B4
:1028F000F9810088F189E02D9401A501B601CE018E
:102900000995C60CD71CB60161507109E881F9819F
:102910000088F189E02D9401A501CE010995E88197
:10292000F9810688F789E02DCE01DF91CF911F91C3
:102930000F91FF90EF90DF90CF90BF90AF909F905E
:102940008F907F906F9009946F927F928F929F9259
:10295000AF92BF92CF92DF92EF92FF920F931F93AD
:10296000CF93DF935C01EB016A01490138018701D4
:10297000DC01ED91FC916217730719F56416750679
:102980002CF0962D872D3A01C92ED82E96012619A6
:1029900037092F5F3F4F048CF58DE02DA301BE0159
:1029A000C5010995DF91CF911F910F91FF90EF9095
:1029B000DF90CF90BF90AF909F908F907F906F905F
:1029C00008954615570591F42617370724F0892DE9
:1029D0004B01C22FD82F9E01281939092F5F3F4F75
:1029E000068CF78DE02DA601B401DACF0284F385C1
:1029F000E02D0995D501ED91FC910488F589E02D34
:102A000083019401A601BE01C5010995D501ED918F
:102A1000FC910688F789E02DC501DF91CF911F91C8
:102A20000F91FF90EF90DF90CF90BF90AF909F906D
:102A30008F907F906F900994EF92FF920F931F9366
:102A4000DC011A960D911C911B9718962D913C91C3
:102A50001997ED91FC9100A0F1A1E02D7B0150E0D0
:102A600040E070E060E009951F910F91FF90EF90BA
:102A700008954F925F926F927F928F929F92AF9242
:102A8000BF92CF92DF92EF92FF920F931F93CF935B
:102A9000DF936C012B015A0139014801DC01ED91F2
:102AA000FC910284F385E02D0995E201640C751C0C
:102AB000D601ED91FC91C615D7055CF40088F1892B
:102AC000E02D87019401A501BE01C601099521965B
:102AD000EFCF0688F789E02DC601DF91CF911F91D6
:102AE0000F91FF90EF90DF90CF90BF90AF909F90AD
:102AF0008F907F906F905F904F9009948F929F92EC
:102B0000AF92BF92CF92DF92EF92FF920F931F93FB
:102B1000CF93DF93EC015B014A016901E881F98100
:102B20000284F385E02D099595012C0D3D1D215062
:102B30003109E881F9810488F589E02D7801840163
:102B4000A401B501CE010995E881F9810688F789CC
:102B5000E02DCE01DF91CF911F910F91FF90EF906B
:102B6000DF90CF90BF90AF909F908F9009948F92FD
:102B70009F92AF92BF92CF92DF92EF92FF920F930C
:102B80001F93CF93DF93EC015B014A016901780148
:102B9000E881F9810284F385E02D0995C80CD91CE0
:102BA000860101501109E881F9810488F589E02D39
:102BB0009501A401B501CE010995E881F981068846
:102BC000F789E02DCE01DF91CF911F910F91FF90FA
:102BD000EF90DF90CF90BF90AF909F908F9009942F
:102BE000EF92FF920F931F93DC01ED91FC9100A0F7
:102BF000F1A1E02D09951F910F91FF90EF9008959D
:102C00000F931F93DC01ED91FC91068CF78DE02D65
:102C100009951F910F9108950F931F93DC01ED917A
:102C2000FC91048CF58DE02D09951F910F9108956D
:102C3000DC01ED91FC910084F185E02D09943F9237
:102C40004F925F926F927F928F929F92AF92BF92BC
:102C5000CF92DF92EF92FF920F931F93CF93DF9368
:102C60005C017B014A016901390187E0680E711C32
:102C700093E0759467949A95E1F72B01400E511EED
:102C800010E000E0312CD0E0C0E0CE018770992741
:102C9000330C892B59F4FE0183E0F595E7958A956D
:102CA000E1F7E00FF11FE80DF91D349037FE0AC07F
:102CB00021E030E0A701B5016C0F7D1F8DE393E0AB
:102CC0000E9418162196CC16DD06F9F68FEFE81A49
:102CD000F80A060D171DE414F504A9F6DF91CF914B
:102CE0001F910F91FF90EF90DF90CF90BF90AF902A
:102CF0009F908F907F906F905F904F903F9008953E
:102D00002F923F924F925F926F927F928F929F92FB
:102D1000AF92BF92CF92DF92EF92FF920F931F93E9
:102D2000CF93DF9300D000D000D0CDB7DEB73C0109
:102D30006A013E832D83FC82EB825801A41AB50AF6
:102D4000B7FE03C0B194A194B1088D809E80861A0D
:102D5000970A97FE03C09194819491088A149B046A
:102D60005CF0902F812F0D811E819D838E839C2D81
:102D70008D2D6B01692F782F0C151D055CF09D8141
:102D80008E817E836D83692F782F902F812F86010E
:102D9000C92ED82E1601201A310A2B012D813E8111
:102DA000421A530A57FE03C05194419451087101CD
:102DB00037FE03C03FEFE31AF30AF594E7948D81E1
:102DC0009E81861797075CF5A1E0B0E0BA83A983DE
:102DD000C016D1064CF1D301ED91FC910484F58528
:102DE000E02D2B813C81A8016D817E818A149B049A
:102DF0001CF04D815E81B801C3010995E418F50806
:102E0000F7FE0AC02D813E8189819A81280F391FE2
:102E10003E832D83E20CF31C0F5F1F4FD9CF2FEFA2
:102E20003FEF3A832983D4CF26960FB6F894DEBFBE
:102E30000FBECDBFDF91CF911F910F91FF90EF900B
:102E4000DF90CF90BF90AF909F908F907F906F90CA
:102E50005F904F903F902F90089508952091BD016D
:102E6000260F3327331F21323105ECF420916802FD
:102E7000FC0190E080E0243069F082E00895A091A8
:102E8000BD012191AC0143565E4FA40FB52FB11D7A
:102E90002C930196861798F38091BD01680F60937B
:102EA000BD0180E0089581E008951092680281E0FC
:102EB000809367021092620261E082E10E94ED0657
:102EC00061E083E10E94ED06E9EBF0E080818E7F16
:102ED000808380818D7F808388E48093B80085E43F
:102EE0008093BC000895CF93DF9391E090939C0171
:102EF0008823B9F0C091B800D091BA008091BC008D
:102F00008A7B8093BC0060E082E10E94ED0660E075
:102F100083E10E94ED060E945517D093BA00C0933A
:102F2000B800DF91CF910895E0916F0280916E0219
:102F3000E81730F4F0E0E059FD4F808190E008950B
:102F40008FEF9FEF089590916F0280916E022FEFA7
:102F50003FEF981748F4E92FF0E0E059FD4F20814A
:102F600030E09F5F90936F02C901089580916E02D7
:102F700090916F02891B990B0895CF92DF92EF9287
:102F8000FF920F931F93CF93DF937C01CB018A01B4
:102F900020919302222389F0EB016B01C40ED51E10
:102FA000CC15DD0569F06991D701ED91FC91019097
:102FB000F081E02DC7010995F3CF642F0E942E17F1
:102FC000C801DF91CF911F910F91FF90EF90DF909B
:102FD000CF900895CF93DF931F92CDB7DEB769836B
:102FE000209193022223F9F020919002203258F090
:102FF00021E030E0FC013383228390E080E00F90F9
:10300000DF91CF91089580919102E82FF0E0E4588C
:10301000FE4F998190838F5F8093910280939002FD
:1030200081E090E0ECCF61E0CE0101960E942E1786
:10303000F7CFCF92DF92EF92FF920F931F93CF9330
:10304000DF93D091900281E0D13208F09CC0C09112
:1030500092020E9461076B017C01809168028111DC
:103060006CC082E08093680281E0809367028FEFFA
:103070008093660210926502D0936402ACE7B1E0DF
:10308000E2E4F2E080E0D8138DC0109263028091F8
:103090006302CC0FC82BC09363028091620281301F
:1030A00009F084C0109262020E9461076B017C01EA
:1030B000809163028093BB0080916A0290916B02C1
:1030C000A0916C02B0916D02892B8A2B8B2BA1F001
:1030D0000E94610700916A0210916B0220916C02BC
:1030E00030916D026C197D098E099F09061717072B
:1030F0002807390708F442C08091BC0083FDD8CF6F
:1031000085EC8093BC000E9461076B017C0180917B
:103110006802823009F44CC0809166028F3F09F446
:1031200069C080916602803209F466C080916602AF
:10313000803309F463C084E026C080916A029091D4
:103140006B02A0916C02B0916D02892B8A2B8B2BA4
:1031500009F483CF0E94610700916A0210916B020B
:1031600020916C0230916D026C197D098E099F09C6
:10317000061717072807390708F06FCF80916902F3
:103180000E94731785E010929102109290021092A3
:103190009302DF91CF911F910F91FF90EF90DF90FD
:1031A000CF9008959D9191938F5F6DCF85EEA9CFBC
:1031B00080916A0290916B02A0916C02B0916D02B5
:1031C000892B8A2B8B2B09F4A2CF0E9461070091D7
:1031D0006A0210916B0220916C0230916D026C19A1
:1031E0007D098E099F09061717072807390708F078
:1031F0008ECFC4CF80E0C7CF82E0C5CF83E0C3CFFE
:10320000EF92FF920F931F93CF937C01C62F809173
:103210005A0390915B03892B09F44EC080915E03A1
:103220000E94870580915A0390915B03DC01ED9128
:10323000FC910190F081E02D60E009958701EE247A
:10324000E394F12CC15080915A0390915B03CF3FDE
:1032500061F1B0E2EB16F104A8F00E941918809118
:103260005E030E94870580915A0390915B03DC0105
:10327000ED91FC910190F081E02D60E00995EE2444
:10328000E394F12C80915A0390915B03F8016491CF
:10329000DC01ED91FC910190F081E02D0995BFEFEB
:1032A000EB1AFB0A0F5F1F4FCDCFCF911F910F91EC
:1032B000FF90EF900C941918E0916A03F0916B0362
:1032C0009081809170038095892380838701C1500C
:1032D00008F438C0F80184912091580330915903C3
:1032E000232B29F00E942E110F5F1F4FF0CF28E0F3
:1032F00030E040E8E0916603F091670390916E033F
:10330000582F5423D9F05081952B9083E091680376
:10331000F0916903908150916F03952B9083E09118
:103320006803F0916903508190916F039095952304
:103330009083469521503109E9F6D6CF508190957A
:103340009523E3CFCF911F910F91FF90EF900895B8
:103350001F93CF93DF93EC018D8D9E8D892BF9F018
:10336000162F89A10E9487058D8D9E8DDC01ED9120
:10337000FC910190F081E02D60E009958D8D9E8D8E
:10338000DC01ED91FC910190F081E02D612F099518
:103390008D8D9E8DDF91CF911F910C941918ADA545
:1033A000BEA59C918BA9809589238C938B8D9C8D38
:1033B000892B31F0862FDF91CF911F910C942E1124
:1033C00028E030E080E8A9A5BAA599A9462F4823AE
:1033D000C1F04C91942B9C93ABA5BCA59C914AA9A0
:1033E000942B9C93ABA5BCA54C919AA99095942342
:1033F0009C9386952150310931F7DF91CF911F9130
:1034000008954C9190959423E6CFEF92FF920F93FD
:103410001F93CF93DF9380915A0390915B03892B85
:1034200009F48DC0209172033091730340917403AD
:103430005091750360E074E284EF90E00E948D2B60
:1034400020513109410951095695479537952795DE
:103450002093B80065E081EB9AE00E94001960912A
:10346000410361508DE393E00E94A819209143032A
:1034700030914403C901079697FD079633E095956F
:1034800087953A95E1F72091410330914203829F5D
:103490008001839F100D929F100D1124C0915C0339
:1034A000D0915D0380915A0390915B030C0F1D1F17
:1034B000892B09F483C080915E030E948705809167
:1034C0005A0390915B03DC01ED91FC910190F08136
:1034D000E02D60E40995EE24E394F12C80915A03E9
:1034E00090915B030C171D0709F440C0B0E2EB1686
:1034F000F104A8F00E94191880915E030E948705CC
:1035000080915A0390915B03DC01ED91FC91019055
:10351000F081E02D60E40995EE24E394F12C809194
:103520005A0390915B036991DC01ED91FC9101904C
:10353000F081E02D0995BFEFEB1AFB0ACFCF809108
:10354000580390915903892B31F080917B0390911E
:103550007C030E943511E0916C03F0916D03908122
:103560008091710380958923808374CF0E941918FC
:1035700080915A0390915B03892B09F460C02091DC
:10358000760330917703409178035091790360E09E
:1035900074E284EF90E00E948D2B205131094109A3
:1035A000510956954795379527952093B800DF9197
:1035B000CF911F910F91FF90EF900895E0916A03D2
:1035C000F0916B03808190917003892B80830C179D
:1035D0001D0771F289912091580330915903232BD3
:1035E00019F00E942E11F3CF28E030E040E8E0917E
:1035F0006603F091670390916E03582F5423D9F01E
:103600005081952B9083E0916803F091690390813C
:1036100050916F03952B9083E0916803F0916903BB
:10362000508190916F0390959523908346952150FA
:103630003109E9F6CCCF508190959523E3CFE09105
:103640006C03F0916D03808190917103892B8083CD
:10365000AECF1F93CF93DF93EC01162F8D8D9E8DF0
:10366000892BB1F12DA93EA94FA958AD60E074E2B4
:1036700084EF90E00E948D2B2051310941095109BE
:1036800056954795379527952093B80066EA11110E
:1036900067EACE010E94A8198D8D9E8D892B41F17C
:1036A00029AD3AAD4BAD5CAD60E074E284EF90E0E3
:1036B0000E948D2B2051310941095109569547959A
:1036C000379527952093B800DF91CF911F910895EA
:1036D0008B8D9C8D892B21F08EAD9FAD0E94351175
:1036E000EFA5F8A990818CA9809589238083CECFFE
:1036F000EFA5F8A980819CA9892B8083E5CF90E074
:1037000080E00895CF92DF92EF92FF920F931F9384
:10371000CF93DF93C82FD62F0E94870580918F0308
:1037200090919003DC01ED91FC910190F081E02DEE
:103730006D2F099580918F03909190030E94191825
:103740008111E4C00E9461076B017C0180916802D5
:10375000811165C081E080936802809367029FEFCA
:1037600090936602109265028093640280936302D4
:1037700080916302CC0FC82BC093630280916202D8
:10378000813009F09DC0109262020E9461076B01B6
:103790007C01809163028093BB0080916A029091CA
:1037A0006B02A0916C02B0916D02892B8A2B8B2B3E
:1037B000A1F00E94610700916A0210916B022091B2
:1037C0006C0230916D026C197D098E099F090617F4
:1037D00017072807390708F443C08091BC0083FD10
:1037E000D8CF85EC8093BC000E9461076B017C01FF
:1037F00080916802813009F465C080916502823051
:1038000008F082C080916502E2E4F2E0A0E7B2E055
:1038100090E0981751F121912D939F5FFACF8091FD
:103820006A0290916B02A0916C02B0916D02892B9B
:103830008A2B8B2B09F48ACF0E94610700916A02C0
:1038400010916B0220916C0230916D026C197D0910
:103850008E099F09061717072807390708F076CF42
:10386000809169020E94731780E010926F0280932A
:103870006E02823009F04AC080918F0390919003CC
:10388000DC01ED91FC910284F385E02D0995D82FA0
:10389000B0E0CB2F80918F0390919003DC01ED91EC
:1038A000FC910284F385E02D09958C0F9D1FDF911B
:1038B000CF911F910F91FF90EF90DF90CF900895DF
:1038C00085EE90CF80916A0290916B02A0916C027C
:1038D000B0916D02892B8A2B8B2B09F489CF0E9422
:1038E000610700916A0210916B0220916C02309185
:1038F0006D026C197D098E099F09061717072807A5
:10390000390708F075CFACCF82E07ECF8AE980938B
:103910008E0390E080E0CBCF8F929F92AF92BF92C8
:10392000CF92DF92EF92FF92CF93DF9380917E034D
:10393000882309F4F7C0609182037091830380911A
:10394000840390918503682B792B706C809186039A
:1039500090918703682B792B809188038111606196
:10396000809189038111686080918A03811164606C
:1039700080918B03EB01C82B80917F030E94870508
:1039800080918F0390919003DC01ED91FC91019067
:10399000F081E02D61E0099580918F039091900373
:1039A000DC01ED91FC910190F081E02D6D2F0995E6
:1039B00080918F0390919003DC01ED91FC91019037
:1039C000F081E02D6C2F099580918F0390919003E9
:1039D0000E941918882319F08AE980938E0380E0E9
:1039E00090E490938D0380938C0380918403909155
:1039F00085038115914009F07EC00E949C084B010F
:103A00005C01209186033091870345E03695279528
:103A10004A95E1F780E890E002C0959587952A9550
:103A2000E2F7865FC82ED12CF12CE12C61E0809169
:103A30007F030E94821B97FD65C00E949C08681945
:103A400079098A099B09C616D706E806F90670F7B0
:103A50008BE980938E038BE99FEF9093EE03809325
:103A6000ED039C01245F33432C3241E0340708F01E
:103A70005CC04091FD035091FE03452B09F055C0F9
:103A80006091320470913304FB01EE0FFF1FEC5D77
:103A9000FB4F84E090E0918380832091C9033091B3
:103AA000CA034091CB035091CC0385E993E00E9477
:103AB0008F0985E993E00E94FB098091320490917F
:103AC0003304019690933304809332048091FD0374
:103AD0009091FE0301969093FE038093FD0381E095
:103AE000DF91CF91FF90EF90DF90CF90BF90AF909C
:103AF0009F908F9008956091800370E090E080E047
:103B00000E94860760E080917F030E94821B2091C3
:103B10008103222309F4A1CF02C0959587952A95A8
:103B2000E2F79BCF90E080E098CFAC014056524244
:103B30004C32514090F48091FD039091FE03019727
:103B400009F49ECF2C32314030F48091FD039091E6
:103B5000FE03029759F080E0C3CF8139954694F374
:103B60008091FD039091FE03019761F7609132040B
:103B7000709133046150710970933304609332047F
:103B80008091FD039091FE0301979093FE03809333
:103B9000FD03FB01EE0FFF1FEC5DFB4F8FEF9FEF6F
:103BA000918380832091D9033091DA034091DB0324
:103BB0005091DC0385E993E00E948F0985E993E049
:103BC0000E94FB098CCF8F929F92AF92BF920F936E
:103BD0001F93CF93DF93CDB7DEB7A1970FB6F894BD
:103BE000DEBF0FBECDBF19A2423008F44AE08E01FD
:103BF0000F5D1F4F842E912CB12CA12CA501940197
:103C00000E948D2BE62FB901CA01EA3044F5E05D30
:103C1000D801EE938D01232B242B252B79F790E0EF
:103C200080E0109769F0FD0101900020E9F73197DD
:103C3000AF014A1B5B0BBD018DE393E00E9462095B
:103C4000A1960FB6F894DEBF0FBECDBFDF91CF9126
:103C50001F910F91BF90AF909F908F900895E95C56
:103C6000D7CF0F931F93CF93DF938C01D0E0C0E0A9
:103C7000F801EC0FFD1F6491662341F084E992E0A6
:103C80000E941A06892B11F02196F2CF42E050E0F3
:103C900068E771E084E992E00E9462098C0F9D1F41
:103CA000DF91CF911F910F9108958F929F92AF92C4
:103CB000BF92EF92FF920F931F93CF93DF938C01EC
:103CC000909336048093350410920F0410920E04E2
:103CD0001092110410921004109213041092120406
:103CE00010921504109214041092170410921604E6
:103CF000109219041092180485E090E090930D043E
:103D000080930C04D0E0C0E0780182E0E81AF1086A
:103D1000B5E08B2E912CA12CB12CCE15DF050CF02B
:103D200065C00E94032BA50194010E945B2BDB015F
:103D300070930A0460930904209709F447C0EAE1EC
:103D4000F4E030E020E02C173D0744F4419151911C
:103D5000A417B507D1F02F5F3F4FF5CF21E0A43076
:103D6000B105A9F4FE01EE0FFF1FE85EFB4F408195
:103D700051814130510539F50730110571F6C430D4
:103D8000D10559F6D0E0C0E0C8CF20E0E8CF1197C8
:103D9000D1F4FE01EE0FFF1FE85EFB4F4081518121
:103DA0004430510549F3C230D1056CF04330510520
:103DB00051F4FE01EE0FFF1FEA5EFB4F408151817F
:103DC00044305105C9F2222309F4A7CFFE01EE0FBA
:103DD000FF1FE65EFB4F718360832196FE01EE0FAD
:103DE000FF1FE45FFB4F7183608397CFF801EE0FF5
:103DF000FF1FE65FFB4F86E090E0918380838BEAB4
:103E000093E00E94FB099CE0E92E94E0F92ED0E0BB
:103E1000C0E0C017D1070CF052C0D701ED91FD9161
:103E20007D01E730F105C0F4E85EF04E0C94D22B32
:103E30001F1F321F3B1F441F4D1F561F561F20912F
:103E4000C5033091C6034091C7035091C803BE011A
:103E50008BEA93E00E948F098BEA93E00E94FB09B2
:103E60002196D7CF2091D1033091D2034091D30333
:103E70005091D403ECCF2091D5033091D6034091DB
:103E8000D7035091D803E3CF2091CD033091CE03D7
:103E90004091CF035091D003DACF2091C9033091E4
:103EA000CA034091CB035091CC03D1CF2091C103E1
:103EB0003091C2034091C3035091C403C8CFDF9136
:103EC000CF911F910F91FF90EF90BF90AF909F9077
:103ED0008F9008952091430330914403C9010796C0
:103EE00097FD079623E0959587952A95E1F7209110
:103EF000410330914203829FA001839F500D929F06
:103F0000500D112470E060E080915C0390915D039E
:103F10000C94022D0E94FD2C85ED8093BC008091B5
:103F20006A0290916B02A0916C02B0916D020796AB
:103F3000A11DB11D23E0B695A795979587952A9564
:103F4000D1F72091BC0024FD03C0109268020895AF
:103F500040916A0250916B0260916C0270916D0207
:103F6000452B462B472B69F30097A105B10541F07E
:103F70002AE22A95F1F700C00197A109B109E1CF22
:103F8000809169020C9473171F920F920FB60F92D3
:103F900011242F933F938F939F93AF93BF9380915F
:103FA0003A0290913B02A0913C02B0913D023091C7
:103FB000390223E0230F2D3758F50196A11DB11DBD
:103FC0002093390280933A0290933B02A0933C02E3
:103FD000B0933D0280913E0290913F02A091400239
:103FE000B09141020196A11DB11D80933E029093B4
:103FF0003F02A0934002B0934102BF91AF919F91C5
:104000008F913F912F910F900FBE0F901F90189599
:1040100026E8230F0296A11DB11DD2CF1F920F9249
:104020000FB60F9211242F933F934F935F936F938B
:104030007F938F939F93AF93BF93EF93FF9384E905
:1040400092E00E94F805FF91EF91BF91AF919F918F
:104050008F917F916F915F914F913F912F910F9031
:104060000FBE0F901F9018951F920F920FB60F92D0
:1040700011242F938F939F93EF93FF93E091A402CA
:10408000F091A5028081E091AA02F091AB0282FD3D
:104090001BC090818091AD028F5F8F732091AE0223
:1040A000821741F0E091AD02F0E0EC56FD4F958FA4
:1040B0008093AD02FF91EF919F918F912F910F907F
:1040C0000FBE0F901F9018958081F4CF1F920F9212
:1040D0000FB60F9211242F933F934F935F936F93DB
:1040E0007F938F939F93AF93BF93EF93FF93E09151
:1040F0002702F0912802309749F0A685B78585857B
:10410000968D91FF14C09C918923A1F4FF91EF91AA
:10411000BF91AF919F918F917F916F915F914F91DF
:104120003F912F910F900FBE0F901F9018959C916B
:10413000892361F7A389B4899C9185898095892316
:104140008C93868997890197F1F7608D718DA6858B
:10415000B785558538E020E0CB010197F1F7822F34
:1041600090E095958795282F4C91452309F020687C
:10417000315091F7868D81FD20958091260290E047
:1041800001968F73992730912502381799F0A091E5
:104190002602B0E0A052BE4F2C9380932602828D5F
:1041A000938D0197F1F7A389B4898C919589892B17
:1041B0008C93ACCF868D8160868FF1CF1F920F924A
:1041C0000FB60F9211242F933F934F935F936F93EA
:1041D0007F938F939F93AF93BF93EF93FF938091C0
:1041E000B900887F803609F44AC0F0F5883209F4B6
:1041F000A7C018F5803109F49BC0B8F4882309F4EE
:10420000F9C0883009F494C0FF91EF91BF91AF914C
:104210009F918F917F916F915F914F913F912F91DE
:104220000F900FBE0F901F901895883109F488C029
:10423000803251F78093660214C0803409F49DC027
:1042400040F48033B9F38833F9F68093660285EC45
:10425000B0C0803509F485C0883509F496C088342B
:1042600099F60E948C1FD0CF883909F48CC038F59C
:10427000883729F050F4883611F0803729F683E02A
:10428000809368021092DF0157C0883809F47BC020
:10429000803919F0803809F0B7CF8091DF01803282
:1042A00008F071C0E091DF0181E08E0F8093DF01A3
:1042B0008091BB00F0E0E154FE4F80833DC0803B25
:1042C00039F0E0F4803A09F479C0883A09F09CCFDB
:1042D00084E0809368021092BE011092BD01E091CB
:1042E0002302F091240209958091BD0181110FC034
:1042F00081E08093BD0110929D0109C0803C09F4CA
:10430000A6CF883C09F4A3CF883B09F07DCFE0918C
:10431000BE0181E08E0F8093BE01F0E0E356FE4FB8
:1043200080818093BB009091BE018091BD0129C026
:10433000809163028093BB0085EC8093BC0064CFC6
:104340009091650280916402981758F5E09165029A
:1043500081E08E0F80936502F0E0EE5BFD4F80817F
:10436000E9CFE091650281E08E0F80936502809134
:10437000BB00F0E0EE5BFD4F808390916502809181
:1043800064029817C8F285E8D8CFE091650281E011
:104390008E0F809365028091BB00F0E0EE5BFD4FD5
:1043A00080838091670281115CCF81E080936202FB
:1043B00084EA8093BC001092680226CF85EC80933B
:1043C000BC00109268028091DF01803230F4E091ED
:1043D000DF01F0E0E154FE4F10826091DF0170E0F8
:1043E000E0912102F09122028FEB91E00995109269
:1043F000DF010ACF1092660234CF0F931F93CF9341
:10440000DF93EC01162F072F8981882339F08E81E5
:104410009F8197FD03C060E00E941B071E830F83EE
:104420008981882341F061E0812F0E941B0760E0B1
:10443000812F0E94ED06812F902FFC01EB58F54F44
:10444000E491F0E0EE0FFF1FEF59F54F2591349105
:104450003C8B2B8BFC01E757F54FE491ED8BDF9103
:10446000CF911F910F910895EF92FF920F931F9399
:10447000CF93DF93EC017B0189859A850E94742C90
:104480009E858B85981701F184E090E08E9D8001D8
:104490008F9D100D9E9D100D11241D830C83C8014E
:1044A0000E94D82B9A878987009789F0A80170E02D
:1044B00060E00E94022DFB82EA82DF91CF911F9182
:1044C0000F91FF90EF90089583E090E0DFCF1D8281
:1044D0001C821B821A82F1CF8F929F92AF92BF9261
:1044E000CF92DF92EF92FF920F931F93CF93DF93C0
:1044F000E4E9F2E01382128288EE93E0A0E0B0E0FB
:1045000084839583A683B7832CE231E031832083B3
:1045100025EC30E03587248724EC30E03787268788
:1045200020EC30E0318B208B21EC30E0338B228B80
:1045300022EC30E0358B248B26EC30E0378B268B59
:10454000118E128E138E148E21E3C22E23E0D22EF2
:10455000F6011382128284839583A683B7838EE348
:1045600091E091838083C6E5D4E084EF91E0A0E000
:10457000B0E08C879D87AE87BF878AE0ECE0F1E0F2
:10458000A0E7B4E001900D928A95E1F71CA202E049
:104590000DA31AA61BA68BE090E09D838C838AE076
:1045A00090E09B838A83EAE4F4E01386128681E03C
:1045B00090E09783868387E00E94C406E7E3F4E0F7
:1045C000978386831382128286E090E091878087AA
:1045D00037E0832E912C9386828688E090E0958741
:1045E0008487128A118A1686108A1786CDE7D3E04F
:1045F000198A1C8A1D8A1E8A1F8A1E821D8280E0DB
:1046000091E098878F8340E8A42EB12CBA86A986C2
:104610001B8611E01C871D8683E08E87EE24EA94BA
:10462000FE2CF88AEF8688E48A83DB8ACA8A85E3CF
:10463000888388E08B831C8284E08983198E18A28A
:104640001AA219A21FA218A619A61AA61EA31BA376
:104650001CA20DA3188F68E070E085E993E00E942A
:10466000342261E070E085E993E00E94FD211FA6FD
:104670001EAA18AE1FAA1092BA031092BB03109282
:10468000BC031092BD031CAF19AF1AAE0BAF1EA72F
:1046900068E070E08BEA93E00E94342262E070E010
:1046A0008BEA93E00E94FD2180E092E3AFEFB0E05F
:1046B0008093C1039093C203A093C303B093C40338
:1046C0008FEF9FEFAFEFB0E08093C5039093C603E9
:1046D000A093C703B093C80380E09FEFAEE1B0E0C2
:1046E0008093C9039093CA03A093CB03B093CC03E8
:1046F0008FEF90E0A8ECB0E08093CD039093CE03D1
:10470000A093CF03B093D00380E098ECAFEFB0E07C
:104710008093D1039093D203A093D303B093D40397
:1047200080E090E0AFEFB0E08093D5039093D603A4
:10473000A093D703B093D8031092D9031092DA0351
:104740001092DB031092DC038EE090E09093DE0386
:104750008093DD038FE090E09093E0038093DF038C
:1047600080E190E09093E2038093E10381E190E0A7
:104770009093E4038093E3031092E6031092E50321
:104780001092E8031092E7031092EA031092E903F3
:104790001092EC031092EB031092EE031092ED03D3
:1047A0001092F0031092EF031092F2031092F103B3
:1047B0001092F6031092F5031092F8031092F7038B
:1047C0001092FA031092F9031092FC031092FB036B
:1047D0001092FE031092FD03109200041092FF034A
:1047E000109202041092010483E090E0909306047A
:1047F0008093050484E090E0909304048093030484
:104800008CE090E0909308048093070410920B04CE
:1048100010923304109232041093340490923604B0
:1048200080923504F0922504E0922404F09227044B
:10483000E0922604F0922904E0922804F0922B04DE
:10484000E0922A04F0922D04E0922C04F0922F04BE
:10485000E0922E04F0923104E0923004EDE3F3E0B4
:1048600013821282B582A48280E290E097838683CD
:10487000B186A08693878287168A15861486178646
:104880001686158B148BF38AE28AF18AE08A178BDD
:10489000108E128E118E80E591E091838083148EAC
:1048A000138ED68EC58E10A2178E8FEF84A385A38C
:1048B00086A387A380A780E89AE1A6E0B0E085AB55
:1048C00096ABA7ABB0AF80EA96E8A1E0B0E081AFCD
:1048D00092AFA3AFB4AF80E586AF17AEDF91CF91B3
:1048E0001F910F91FF90EF90DF90CF90BF90AF900E
:1048F0009F908F900895789484B5826084BD84B52C
:10490000816084BD85B5826085BD85B5816085BDCA
:1049100080916E00816080936E0010928100809182
:10492000810082608093810080918100816080930A
:104930008100809180008160809380008091B1002F
:1049400084608093B1008091B00081608093B0005A
:1049500080917A00846080937A0080917A008260EE
:1049600080937A0080917A00816080937A008091B0
:104970007A00806880937A001092C10080915C0375
:1049800090915D03892B11F10E946A1F20914303CE
:1049900030914403809141039091420321323105CB
:1049A0000CF080C2B9016052710977FF02C06F5FDD
:1049B0007F4F759567958357910997FD019600E2A2
:1049C00010E023E730E04AE855E07FC2209143033E
:1049D00030914403C901079697FD0796B3E095957A
:1049E0008795BA95E1F72091410330914203AC01DC
:1049F000429FC001439F900D529F900D11240E9431
:104A0000D82B90935D0380935C03892B09F0BCCF76
:104A10000E94051A68EE73E080E090E00E9486072D
:104A20000E946A1F0E94051A82E0809351038093BE
:104A3000520381E090E09093500380934F03909352
:104A40004E0380934D030E94051A60E085E00E94AA
:104A50001B0760E088E00E941B0760E087E00E947F
:104A60001B0760E086E00E941B0760E083E00E9475
:104A70001B0760E084E00E941B0760E08CE00E945E
:104A80001B078FE190E00E94D82BEC01C0905A04E4
:104A9000D0905B040091580410915904F02E1B82B1
:104AA0001A8288EE93E0A0E0B0E08C839D83AE8311
:104AB000BF838AE191E0998388831F8A1E8A198EB9
:104AC000188E1B8E1A8E1D8E1C8E6E8D6E7F6D7FC6
:104AD0006E8F6695617081E068278C2D0E94ED06CF
:104AE00061E08C2D0E941B07C6019927FC01E75746
:104AF000F54FE491E88BFC01EB58F54FE491F0E0C1
:104B0000EE0FFF1FEF59F54F859194919A8B898B8A
:104B100060E0802F0E941B078E8D81FD04C061E044
:104B2000802F0E94ED060C871127F801E757F54FFB
:104B3000E491ED87F801EB58F54FE491F0E0EE0FCA
:104B4000FF1FE559F54F859194919F878E87D093EC
:104B50005704C09356041B8E1A8E198E188E1F8A06
:104B60001E8A8DE991E09D8F8C8F55E15F1508F4C9
:104B70003FC08DEB90E09F8B8E8B8BE991E0998FFE
:104B8000888F8CE291E09B8F8A8F9091680087E0FC
:104B90008F1508F07DC321E04DE04F1508F020E0AF
:104BA00081E001C0880F2A95EAF7892B809368007D
:104BB0009C852DE630E0983050F02BE630E09E30BA
:104BC00030F02CE630E0963110F030E020E03C8B05
:104BD0002B8B292F30E0983008F05CC381E001C0B6
:104BE000880F9A95EAF78D8B8C8D9D8D0197F1F743
:104BF0008A8D9B8D892B09F1E0912702F091280283
:104C0000CE17DF07D1F0309739F0A389B4899C9192
:104C10008589809589238C938E8D8E7F8E8F1092BF
:104C2000260210922502D0932802C0932702EB8916
:104C3000FC8980819D89892B80838CE39AE00E9486
:104C4000311E809156049091570490935D04809397
:104C50005C0481E08093740484E080937C0410926F
:104C600080046AE070E086E00E94A8088AE29AE088
:104C70000E94311E80E00E944C07BC01990F880BF6
:104C8000990B611571058105910511F00E94522B58
:104C90008BEA93E00E94190E8BEA93E00E94FB09D5
:104CA0008BEA93E00E94910585E993E00E94190E3A
:104CB00085E993E00E94FB0985E993E00E94910554
:104CC0008FEF9FEF90931B0480931A0490931D0421
:104CD00080931C0490931F0480931E0490932104DE
:104CE00080932004909323048093220480917F0377
:104CF00098EB980F943040F40E94870580918F03C1
:104D0000909190030E9419181092830310928203CD
:104D100064E170E083E090E00E94490964E670E09D
:104D200080E090E00E94860780910001909101014F
:104D30000E94551E82E0882E912CA12CB12C01E0FE
:104D400010E095E0292E312C24E0C22ED12C33E046
:104D5000E32EF12C64EF71E080E090E00E94860782
:104D60000E946A1F0E94051A10924A03109249037A
:104D700010924C0310924B0340903702509038022F
:104D8000052C000C660877084AE0C301B20177FEE3
:104D90000DC06DE28DE393E00E94731366277727C1
:104DA000CB0164197509860997094AE00E94E31D41
:104DB00010924A031092490310924C0310924B0335
:104DC0000E94051A8092330290923402A09235021A
:104DD000B0923602109232021092310210923002DA
:104DE00010922F0210922E0210922D020E949C0807
:104DF0006093290270932A0280932B0290932C02D5
:104E00006FE070E087E090E00E94490964E670E09E
:104E100080E090E00E9486078091310290913202FA
:104E2000892B09F066C20E94D00AC82F0E94600B2D
:104E30008111C82FD0E00E94FD0B882311F0C1E042
:104E4000D0E00E948F0C882311F0C1E0D0E00E94D6
:104E50009D0D882311F0C1E0D0E00E94210D882330
:104E600011F0C1E0D0E00E948C1C882311F0C1E059
:104E7000D0E0809107040E94C4069093F4038093CD
:104E8000F303892B09F013C282E090E090932F0284
:104E900080932E0291E0909330021093320200939F
:104EA00031020CC2B9016054710977FF02C06F5F13
:104EB0007F4F759567958255910997FD019600E49E
:104EC00010E022E530E04AE657E0959587950E948C
:104ED0001F1682E080935F0380915A0390915B03D9
:104EE000892B09F4DFC08CE380935E0310926F027C
:104EF00010926E0210929102109290020E94551729
:104F000080E699E0909324028093230281E699E061
:104F100090932202809321028091650387FD1EC039
:104F200061E00E941B0761E0809165030E94ED062D
:104F300061E070E080E090E00E94860760E0809190
:104F400065030E94ED066AE070E080E090E00E9458
:104F5000860761E0809165030E94ED0680915A0307
:104F600090915B03892B09F45CC12091720330910D
:104F70007303409174035091750360E074E284EF11
:104F800090E00E948D2B205131094109510956951D
:104F90004795379527952093B80064E086E895E01B
:104FA0000E9400196091430361508DE393E00E94D9
:104FB000A81964E082E895E00E94001980915F03DF
:104FC00060E1813009F064E18DE393E00E94A8196B
:104FD00064E08EE795E00E9400198FE880937A03E1
:104FE00080914103909142038038910509F032C1CC
:104FF00080914303909144038034910509F03AC1B4
:1050000080915F03813009F023C18FE980937A0397
:10501000C2E16AED8DE393E00E94A8196C2F8DE345
:1050200093E00E94A81961E88DE393E00E94A8191B
:1050300060917A038DE393E00E94A81969ED8DE3F6
:1050400093E00E94A81980915F0362E2813009F029
:1050500061EF8DE393E00E94A81966E088E795E090
:105060000E94001980915A0390915B03892B09F4E7
:1050700005C12091760330917703409178035091D8
:10508000790360E074E284EF90E00E948D2B205160
:105090003109410951095695479537952795209330
:1050A000B800B6CC61E0809163030E941B0761E009
:1050B000809164030E941B0780916303082E000CFB
:1050C000990BFC01EB58F54FE491F0E0EE0FFF1F58
:1050D000EF59F54F2591349130936B0320936A0378
:1050E000FC01E757F54FE491E0937003809164036E
:1050F000082E000C990BFC01EB58F54FE491F0E001
:10510000EE0FFF1FEF59F54FA591B491B0936D03CA
:10511000A0936C03FC01E757F54FE491E093710312
:105120008C91E82BEC938091580390915903892B33
:1051300009F434C0CFB7F89480912002811127C0C0
:10514000EFE7FAE08491E3E9FAE09491E82FF0E0E8
:10515000EE0FFF1FE95AF54FA591B491EC91E923A9
:1051600021F461E08AE00E94ED0661E08AE00E949D
:105170001B078CB580618CBD8CB580648CBD61E0F3
:105180008DE00E941B0761E08BE00E941B0780916D
:1051900020028F5F80932002CFBFBECE61E080915E
:1051A00061030E941B0761E0809162030E941B075C
:1051B00080916103082E000C990BFC01EB58F54F10
:1051C000E491F0E0EE0FFF1FEF59F54F2591349178
:1051D0003093670320936603FC01E757F54FE49192
:1051E000E0936E0380916203082E000C990BFC0182
:1051F000EB58F54FE491F0E0EE0FFF1FEF59F54F3C
:10520000A591B491B0936903A0936803FC01E7579B
:10521000F54FE491E0936F038C91E095E823EC93D4
:105220007BCE8091580390915903892B31F0809166
:105230007B0390917C030E943511E0916C03F09107
:105240006D03908180917103809589238083A5CE21
:105250008FECDCCE8036910569F480914303909108
:105260004403409739F480915F03813029F480E151
:1052700080937A03C2E0CDCE8FEAFACFE0916C033F
:10528000F0916D03808190917103892B8083C0CB55
:1052900084E08BCC9E3040F42850310981E001C07D
:1052A000880F2A95EAF79FCC2E503109F7CFD0937B
:1052B0002F02C0932E02CD2B09F0ECCD0E949C084A
:1052C0004090290250902A0260902B0270902C028C
:1052D000641975098609970960317742810591053E
:1052E00008F49ACD109230021093320200933102EA
:1052F00093CD8091300281113BC06FE070E089E076
:1053000090E00E94490980910001909101010E9462
:10531000551E68EE73E080E090E00E9486071092D0
:1053200047041092460410924904109248041092C7
:1053300055041092540480913002882361F08091CA
:10534000370290913802833691050CF4B3C0109265
:1053500038021092370280913702909138028431DE
:10536000910508F0ADC0F0920101E0920001F2CC8D
:1053700080912E0290912F028130910529F46FE0E7
:1053800070E088E090E0BDCF029709F0BCCF6FE0FD
:1053900070E081E090E00E94490968EE73E080E0EF
:1053A00090E00E94860741E040930B042091350471
:1053B00030913604ECE0F4E090E080E0821793074F
:1053C00054F461917191468957896417750709F4FE
:1053D00061C010920B046FE070E089E090E00E94E1
:1053E000490968EE73E080E090E00E9486076FE074
:1053F00070E08AE090E00E9449090E949C08609356
:10540000290270932A0280932B0290932C0210920F
:105410003202109231028091310290913202892B36
:1054200009F043C00E94D00A0E94600B0E94FD0B4D
:105430000E948F0C0E949D0D0E94210D0E948C1CC9
:1054400062E370E080E090E00E9486078091320481
:1054500090913304892B01F110922F0210922E02A9
:105460000E949C084090290250902A0260902B02D2
:1054700070902C026419750986099709603177428A
:105480008105910540F21092300210933202009390
:105490003102C1CF019692CF10932F0200932E02BA
:1054A0001093320200933102DBCF809130028111E0
:1054B00066CF23CF019690933802809337024BCF6B
:1054C0009C01245131092431310528F4D092010185
:1054D000C09200013FCC9C01285231092431310592
:1054E00028F4309201012092000134CC9C012C530D
:1054F00031092431310538F486E090E090930101C0
:105500008093000127CC803591050CF423CC87E0F3
:1055100090E0F4CF80E591E090933E0380933D03CB
:1055200080915C0390915D03009711F00E94742CB0
:105530008091B4039091B5030E94742C8091B103C3
:105540009091B20397FD03C060E00E941B07809119
:105550009E0390919F030E94742C80919B039091D5
:105560009C0397FD03C060E00C941B0708958F9285
:105570009F92AF92BF92CF92DF92EF92FF92CF9322
:10558000DF93EC01688179818A819B8161157105C6
:105590008105910521F464E279ED8BE597E02DE139
:1055A00033EF41E050E00E945B2B49015A019B011F
:1055B000AC01A7EAB1E40E947A2B6B017C01ACEE4E
:1055C000B4EFA50194010E94882BC60ED71EE81ED9
:1055D000F91EF7FE06C081E0C81AD108E10880E88C
:1055E000F80AC882D982EA82FB82C701B6019F7796
:1055F000DF91CF91FF90EF90DF90CF90BF90AF9071
:105600009F908F9008958F929F92AF92BF92CF926A
:10561000DF92EF92FF9260910201709103018091FD
:10562000040190910501611571058105910521F431
:1056300064E279ED8BE597E02DE133EF41E050E056
:105640000E945B2B49015A019B01AC01A7EAB1E41E
:105650000E947A2B6B017C01ACEEB4EFA5019401A2
:105660000E94882BC60ED71EE81EF91EF7FE06C044
:1056700081E0C81AD108E10880E8F80AC092020166
:10568000D0920301E0920401F0920501C701B60136
:105690009F77FF90EF90DF90CF90BF90AF909F905B
:1056A0008F90089560930201709303018093040129
:1056B000909305010895052E97FB1EF400940E9417
:1056C000722B57FD07D00E948D2B07FC03D04EF4A0
:1056D0000C94722B50954095309521953F4F4F4F2C
:1056E0005F4F089590958095709561957F4F8F4F8E
:1056F0009F4F08950E94AF2BA59F900DB49F900DD2
:10570000A49F800D911D11240895B7FF0C947A2B4E
:105710000E947A2B821B930B0895A1E21A2EAA1BDA
:10572000BB1BFD010DC0AA1FBB1FEE1FFF1FA21751
:10573000B307E407F50720F0A21BB30BE40BF50B4E
:10574000661F771F881F991F1A9469F760957095D7
:10575000809590959B01AC01BD01CF010895A29F5A
:10576000B001B39FC001A39F700D811D1124911D35
:10577000B29F700D811D1124911D0895AA1BBB1BA2
:1057800051E107C0AA1FBB1FA617B70710F0A61B41
:10579000B70B881F991F5A95A9F780959095BC0162
:1057A000CD010895EE0FFF1F0590F491E02D0994AF
:1057B0000F931F93CF93DF938230910510F482E013
:1057C00090E0E0918404F091850430E020E0B0E0C6
:1057D000A0E0309799F42115310509F44AC0281B3F
:1057E000390B24303105D8F58A819B81611571050B
:1057F00089F1FB0193838283FE0111C040815181B5
:105800000281138148175907E0F04817590799F4A6
:10581000109761F012960C93129713961C93329680
:10582000CF01DF91CF911F910F91089500938404D0
:1058300010938504F4CF2115310551F04217530719
:1058400038F0A901DB019A01BD01DF01F801C1CFE8
:10585000EF01F9CF9093850480938404CDCFFE01AE
:10586000E20FF31F819391932250310939832883EA
:10587000D7CF2091820430918304232B41F42091CF
:105880000801309109013093830420938204209110
:105890000601309107012115310541F42DB73EB7BE
:1058A00040910A0150910B01241B350BE0918204B9
:1058B000F0918304E217F307A0F42E1B3F0B281787
:1058C000390778F0AC014E5F5F4F2417350748F079
:1058D0004E0F5F1F509383044093820481939193F2
:1058E0009FCFF0E0E0E09CCFCF93DF930097E9F00B
:1058F000FC01329713821282A0918404B091850436
:10590000ED0130E020E01097A1F420813181820F79
:10591000931F20918204309183042817390709F0DE
:1059200061C0F0938304E0938204DF91CF910895E6
:10593000EA01CE17DF07E8F54A815B819E01411538
:105940005105B1F7E901FB83EA8349915991C40FED
:10595000D51FEC17FD0761F4808191810296840FB9
:10596000951FE90199838883828193819B838A8330
:10597000F0E0E0E012968D919C9113970097B9F5B5
:105980002D913C911197CD010296820F931F20918A
:105990008204309183042817390739F6309751F57E
:1059A0001092850410928404B0938304A09382041F
:1059B000BCCFD383C28340815181840F951FC81708
:1059C000D90761F44E5F5F4F88819981480F591F55
:1059D000518340838A819B81938382832115310582
:1059E00009F0B0CFF0938504E09384049ECFFD01CD
:1059F000DC01C0CF13821282D7CF81E090E0F8940F
:105A00000C94092DDC0101C06D9341505040E0F72A
:105A1000089515E0CCE5D5E004C0FE010E94D22B2C
:105A20002196CD35D107C9F7F894FFCF03000100C7
:105A300000000000860480007EFF060001000000D8
:105A400000EF00000000440E62097F1BBA05A00EA3
:105A5000B60E2C0E000000001A066209BB05670690
:105A6000EC05CA05DE0500000000EA17BD177F1B24
:105A7000BA05B617A3179417000000007313620944
:105A80007F1B2D177E10BA051816F0150C16001680
:105A90008016BA053911291BEE0F371039151C1560
:085AA000A41445140D0A0000D6
:107E0000112484B714BE81FFF0D085E080938100F7
:107E100082E08093C00088E18093C10086E0809377
:107E2000C20080E18093C4008EE0C9D0259A86E02C
